:020000040000FA
:10000000A80A00201102000031020000F5010000E2
:1000100000000000000000000000000000000000E0
:10002000000000000000000000000000BD0B000008
:100030000000000000000000B30100008D0C000073
:100040003B0200003B0200003B0200003B020000BC
:100050003B0200003B0200003B0200003B020000AC
:100060003B0200003B0200003B0200003B0200009C
:100070003B0200003B0200003B0200003B0200008C
:100080003B0200003B0200003B0200003B0200007C
:100090003B0200003B0200003B0200003B0200006C
:1000A0003B0200003B0200003B0200003B0200005C
:1000B0003B0200003B0200003B0200003B0200004C
:1000C00000F002F800F04BF80CA030C808382418F3
:1000D0002D18A246671EAB4654465D46AC4201D180
:1000E00000F03DF87E460F3E0FCCB6460126334267
:1000F00000D0FB1AA246AB4633431847B81C000099
:10010000D81C0000103A02D378C878C1FAD8520738
:1001100001D330C830C101D504680C6070470000BD
:100120000023002400250026103A01D378C1FBD813
:10013000520700D330C100D50B60704710B5642959
:1001400002D100F0A5F810BD782902D100F0D6F850
:1001500010BD002010BD1FB51FBD10B510BD00F0B3
:10016000F1FA1146FFF7F7FF01F036F900F009FB4D
:1001700003B4FFF7F2FF03BC00F010FB084B196853
:100180000868203080F30988022080F31488BFF3C8
:100190006F8F3FBCAE4608BC04BC62B61847000077
:1001A00000000020EFF3108072B6704780F31088D3
:1001B0007047EFF309800E4B1A6820381060F0C0CA
:1001C00044464D4656465F46F0C008B572B601F04B
:1001D000F5FB62B60CBC116808681030F0C8A04688
:1001E000A946B246BB4680F309882038F0C81847B4
:1001F0000000002004207146084202D0EFF309807D
:1002000001E0EFF308807146004A1047410A000000
:100210000D480E4901600E4901600E4901600E4A09
:100220000E491160002101600D4880470D480047CC
:10023000FEE7FEE7FEE7FEE7FEE7FEE70A480B49BA
:10024000094A0B4B704700000001005059000000A4
:10025000160000008800000024000050A55A00008D
:10026000150D0000C1000000A8060020A80A00200B
:10027000A80600200FB4054910B503AA029800F0A3
:1002800021FA10BC08BC04B0184700008000002010
:10029000F7B5002575291068009914A611D0C0463D
:1002A000C046002802DA404211A608E00099096819
:1002B0008A0701D50FA602E0490704D50EA601253D
:1002C00001E0C046C046009F0024243704E000F04F
:1002D0000DFA30313955641C0028F8D12B463246CE
:1002E0002146009800F096F9FEBD000000000000D5
:1002F0002D0000002B0000002000000070B5044617
:100300000D4621461068C046C0462188090502D521
:100310000F4A7A4402E00E4A7A440E322346002104
:10032000243305E006070009360F965D5E54491C2C
:100330000028F7D120780023000705D5702D03D0C1
:10034000002901D002231132204600F063F970BD6C
:10035000761A0000F3B50446002081B020622046E2
:10036000E1688847002872D0252802D06268A16819
:100370009AE0E16820460026884705460020E061B3
:100380000746A0612A2D0AD0284600F05BFD002810
:1003900027D0B8000019303D0090856119E002981F
:1003A000BA00121902C8916102902046E16888479C
:1003B000012F054617D1E06900281FDA2020864367
:1003C0001CE000980A2180694843009940193038A0
:1003D00088612046E1688847054600F033FD002823
:1003E000EFD1012F0AD02E2D08D12046E168884791
:1003F0000546202006437F1C022FC3DBA06900288E
:1004000003DA4042A06101200643F00701D010202A
:1004100086436C2D0AD0682D08D04C2D3CD06A2D17
:1004200038D0742D38D07A2D36D016E0E1682F46BA
:1004300020468847B84205460AD16C2F2AD00120B1
:100440008002E168064320468847054605E02FE024
:100450006C2F1DD0FF2001300643002D28D02846E8
:100460004138192803D80120C00206432035204610
:1004700026602946029A1646FFF760FE002810D033
:1004800001280BD0F61DF008C0000830029066E786
:100490004020E1E78020D4E70020D2E7361D029615
:1004A0005DE762682846A1689047206A401C55E7CE
:1004B000206AFEBD002203098B422CD3030A8B4223
:1004C00011D300239C464EE003460B433CD400224C
:1004D00043088B4231D303098B421CD3030A8B425E
:1004E00001D394463FE0C3098B4201D3CB01C01A2C
:1004F000524183098B4201D38B01C01A52414309F7
:100500008B4201D34B01C01A524103098B4201D3E4
:100510000B01C01A5241C3088B4201D3CB00C01A51
:10052000524183088B4201D38B00C01A52414308C9
:100530008B4201D34B00C01A5241411A00D20146EE
:100540005241104670475DE0CA0F00D04942031087
:1005500000D34042534000229C4603098B422DD3D6
:10056000030A8B4212D3FC22890112BA030A8B427E
:100570000CD3890192118B4208D3890192118B42CD
:1005800004D389013AD0921100E08909C3098B4252
:1005900001D3CB01C01A524183098B4201D38B0195
:1005A000C01A524143098B4201D34B01C01A524138
:1005B00003098B4201D30B01C01A5241C3088B427D
:1005C00001D3CB00C01A524183088B4201D38B0068
:1005D000C01A5241D9D243088B4201D34B00C01AF2
:1005E0005241411A00D20146634652415B10104607
:1005F00001D34042002B00D54942704763465B104F
:1006000000D3404201B50020C046C04602BD70473D
:1006100070477047FFB504460D4681B02430009006
:100620002168880604D51022E0699143216000E02A
:100630000120A84201DD471B00E000270498A169C2
:100640007A191018081AA0612078C00602D4204632
:10065000C046C046002608E003986268A168805D35
:100660009047206A401C761C206204988642F3DB87
:100670002078C0060AD52046C046C04606E062681B
:10068000A16830209047206A401C206238467F1EB7
:100690000028F4DC07E000986268A168405D90479C
:1006A000206A401C206228466D1E0028F3DC20468C
:1006B000C046C0462078000602D5022005B0F0BD35
:1006C0000120FBE7084B70B50D467B4400F027F88E
:1006D0000446284600F014FD002802D00020C04344
:1006E00070BD204670BD00003B0A00000146800836
:1006F000081A02091018020A1018020C1018C00873
:10070000820012185200891A01E0401C0A390A2995
:10071000FBD2704701694A1C02610878704700B536
:100720008FB002910021059105490193794403910D
:10073000114604906846FFF70DFE0FB000BD0000A3
:10074000E5FFFFFF754600F025F8AE460500694657
:100750005346C008C000854618B020B5FFF76EFDAF
:1007600060BC00274908B6460026C0C5C0C5C0C544
:10077000C0C5C0C5C0C5C0C5C0C5403D49008D4647
:10078000704710B50446C046C0462046FFF7F0FC4F
:1007900010BD0000004870478C010020014918205E
:1007A000ABBEFEE726000200704700001FB50C4CF0
:1007B0001ECC03946C460EC4810F89006A465158C2
:1007C000084A89184968C306DB0E01229A40114382
:1007D000820F92006B469A58024BD21851601FBD8F
:1007E000541D000000020050024909680143014AFB
:1007F000116070470002005010B500F059FA01482E
:10080000006810BD88000020FEB5002002901AA0EC
:10081000006800901948046A00132040002801D0A5
:100820000020FEBD0120C0042040002801D0144D4E
:1008300000E0144D012040042040002801D028464B
:10084000EFE7032080032040800B69460A5C019299
:10085000E005C00D861C1F2040022040400A871C76
:10086000019A7A431146AA0872431046FFF722FE06
:10087000800002900298D4E70102020400020050B6
:1008800000805101001BB700FEB5002002901AA0A5
:10089000006800901948046A00132040002801D025
:1008A0000020FEBD0120C0042040002801D0144DCE
:1008B00000E0144D012040042040002801D02846CB
:1008C000EFE7032080032040800B69460A5C019219
:1008D000E005C00D861C1F2040022040400A871CF6
:1008E000019A7A431146AA0872431046FFF7E2FDC7
:1008F000800002900298D4E7010202040002005036
:1009000000805101001BB70070B504460D46184821
:10091000C0681021084006461548006804210843B5
:100920001349086000BF1248C06810210840002821
:10093000F9D00F480069C008C000C01D0C4908610B
:10094000084680690009000128438861084600695B
:10095000C008C0002043086100F0AAF9002E05D1AC
:1009600003480068042188430149086070BD000005
:1009700000020050F7B584B000220023184C254631
:10098000E0CDE46802970196009503948403240E59
:10099000002C0ED00403A40FA400124D631984038D
:1009A000250E8405E40EA5401C68AC43069D2C432F
:1009B0001C600401640F002C10D08400A40FA4005C
:1009C0006D462C59074D083D62190401650FC4019D
:1009D000E40EA5401468AC430C43146007B0F0BDAE
:1009E000441D0000180200500146074A05E0104669
:1009F000521E002801DC002070470448C0680840EF
:100A00008842F4D10120F7E7804F12000002005025
:100A100070B5034600200FE0012484400C40002CF8
:100A200009D01C6846000325B540AC434600154676
:100A3000B5402C431C60401C1028EDD370BD000055
:100A4000044604A0FFF716FC204600F043FF00BF59
:100A5000FEE70000496E2048617264204661756CB3
:100A6000742048616E646C65720A00008168092216
:100A7000914381607047000008B5064808230422AE
:100A800000210090044800F009F80348FFF7EEFF4A
:100A900008BD000080841E0000000340FFB583B045
:100AA00004460C9E00270698202801D100200690BD
:100AB0000698C00004990843059908432060E06B3C
:100AC0000121C9070843E063FFF796FE02900498EE
:100AD000002863D1A06038484069102108401028E0
:100AE00001D1029F02E0FFF78FFE0746029886427F
:100AF0000BD3314840691021884310302E4948619A
:100B000000206060029807B0F0BDBE4203D3002011
:100B100060603846F7E7002E0AD1E06B40004008DD
:100B2000E0636068000A0002FF306060780AEAE76C
:100B30000A21794308463146FFF7BCFC401D0A21D3
:100B40000190FFF7B7FC451EFF2D1DD9E06B40005B
:100B50004008E06371000A227A431046FFF7AAFCBE
:100B6000401D0A210190FFF7A5FC451EFF2D00D96D
:100B7000FF256068000A000228436060681C41008D
:100B80003846FFF797FCBEE76068000A000228437A
:100B90006060691C3846FFF78DFCB4E71020A06048
:100BA00005484069102188431030034948610020FE
:100BB00060600298A7E70000000200507047000044
:100BC00010B50120FFF710FE0120FFF70DFF0021F7
:100BD0000846FFF799FE002211461948FFF7CAFEA2
:100BE000002210211748FFF7C5FE1548FFF7DEFD6C
:100BF0001448FFF7DBFD05200007406B80088000EC
:100C00000521090748630846406B03210843052175
:100C1000090748630846806B00090001886308469D
:100C2000806B0F2108430521090788630648006986
:100C30000549086108460069086100F039F810BDEF
:100C4000103D80570C0040524000005000B5034654
:100C5000184600F001F800BD00BF0B498969012268
:100C6000D20511400029F8D1074908600A280AD1A5
:100C700000BF054989690122D20511400029F8D138
:100C80000D21014A116070470000054010B5FFF7C3
:100C900089FA044600F0C6FF002803D001200007AF
:100CA000024948602046FFF781FA10BD00ED00E0E0
:100CB00070B5FFF7E9FD1149086011480069450763
:100CC0006D0F022D03D0A8000E490C5801E00B480F
:100CD00004680B4880690007000F461C3146204617
:100CE000FFF7E8FB084908600849074800684A1010
:100CF0008018FFF7DFFB0649086070BD90000020F8
:100D000000020050940000208800002040420F00A4
:100D10008C0000207047000038B504461F49C868A1
:100D200080471E494869804700BF1C48406A002828
:100D300003D01A48806A002812D1FF2212042240F0
:100D4000100C164A116A8847FF2212022240100A2C
:100D5000124A116A8847E0B2104A116A884711E0C6
:100D6000FF2000042040010C68460170FF200002B3
:100D70002040010A68464170847008480321826A55
:100D8000684690470549C869804705460349886910
:100D90008047024908698047284638BD4C0000203A
:100DA000F8B504460E4617462449C86880472349CB
:100DB0004869804700BF2148406A002803D01F4887
:100DC000806A00281CD1FF2212042240100C1B4A0A
:100DD000116A8847FF2212022240100A174A116A3C
:100DE0008847E0B2154A116A8847002505E0134993
:100DF000C86980477055681C85B2BD42F7DB16E0B4
:100E0000FF2000042040010C68460170FF20000212
:100E10002040010A68464170847008480321826AB4
:100E20006846904705483946426A3046904703492C
:100E300088698047014908698047F8BD4C00002057
:100E40007047704730380A2801D2012070470020CF
:100E50007047000010B5044600BF082C02DD0020DA
:100E6000C04310BD00BFA100491CC900C81DF93016
:100E70001021FFF7E5FF00BFA100491CC900C81DF4
:100E8000F930FFF749FF0028F6D1A100491CC9003D
:100E9000C81DFF30FA301F21FFF7D2FF0120A0400C
:100EA0000F49098881430E4801800120A0400D4967
:100EB000098881430B480180002061000A4A505292
:100EC0000A49085500BFA100491CC90003221202AB
:100ED0008818FFF721FF0028F5D10120C1E70000A5
:100EE00040000020420000207C010020440000203F
:100EF00070B504460D46164600BF082C02DD0020E2
:100F0000C04370BD00BF00BFA100491CC800FFF76F
:100F100003FF0007000F012802D00420C043F0E7C0
:100F200000BF00BFA100491CC9000322120288189B
:100F3000FFF7F2FE132802D00220C043E1E700BF12
:100F400029780A02687811180A02A87811180A028A
:100F5000E8781118481C002801D0002902D10B2084
:100F6000C043CEE7002E02D10A20C043C9E7A1004A
:100F7000491CC90003229202881804222946FFF75F
:100F800060FF3112A200521CD20001231B03D018B3
:100F9000FFF756FFF1B2A200521CD20001231B033F
:100FA000D218D01DF930FFF74BFFA100491CC90032
:100FB000C81DF9300421FFF743FF00BFA100491C01
:100FC000C900C81DF930FFF7A7FE0028F6D101209F
:100FD000A0401C4909880840002801D0002090E763
:100FE00023E0A100491CC900C81DFF30FA30FFF7FB
:100FF00093FE0821084000280BD0A100491CC9001D
:10100000C81DFF30FA300821FFF71AFF0C20C0433B
:1010100077E7A100491CC900032212028818FFF7D4
:101020007BFE002801D1001F6BE7A100491CC9000D
:10103000032212028818FFF76FFE1728D1D1012072
:101040005FE700004000002010B5044600BF082CF8
:1010500002DD0020C04310BD00BF00BFA100491C3D
:10106000C800FFF759FE0007000F012802D0042036
:10107000C043F0E700BFA100491CC900C81DF930FA
:101080000821FFF7DDFE00BFA100491CC900C81DF3
:10109000F930FFF741FE0028F6D10120A0401649A3
:1010A00009888143144801800120A0401349098820
:1010B0000840002801D00020CDE711E0A100491C24
:1010C000C900C81DFF30FA30FFF726FE082108408E
:1010D000002805D02046FFF7BDFE0C20C043BAE72C
:1010E000A100491CC900032212028818FFF714FE50
:1010F0000028E3D10120AEE742000020400000209C
:1011000001460020C043704730B504460D462046D6
:10111000FFF79CFD204630BD70B504460025002633
:1011200000BFA100491CC900132252028818FFF712
:10113000F3FD0646A100491CC9001322520289187A
:10114000C81DF930FFF7E8FD3102401886B2002EC5
:1011500015D0A100491CC900132252028818FFF7BC
:10116000DBFD0546A100491CC90013225202891863
:10117000C81DF930FFF7D0FD2902401885B2B542ED
:10118000CFD1284670BD70B504460025002600BFAB
:10119000A100491CC900012252038818FFF7BCFDB9
:1011A0000646A100491CC900012252038918C81D26
:1011B000F930FFF7B1FD3102401886B2002E15D08C
:1011C000A100491CC900012252038818FFF7A4FDA1
:1011D0000546A100491CC900012252038918C81DF7
:1011E000F930FFF799FD2902401885B2B542CFD1F9
:1011F000284670BDFFB585B0064614461F46002040
:1012000004900390B100491CC900032212028818FF
:10121000FFF782FD00287DD0132868D0172802D060
:101220001C2878D156E0B100491CC900C81DFF3008
:10123000FA30FFF771FDC007C00F002813D0E07827
:10124000A17802970091019063782278314645A0F9
:10125000FFF710F8B100491CC900C81DFF30FA3073
:101260000121FFF7EDFD3046FFF756FF04900028FF
:101270002FDD0121C9020498884201DD084604904F
:101280003046049A069900F00BF90546002D02DC61
:10129000284609B0F0BDA8B204900020039014E0E5
:1012A000039B0498C01A82B20698C118304600F019
:1012B00087F90546002D04DA3046FFF7CBFD2846B6
:1012C000E7E70398401980B2039003990498884295
:1012D000E6D144E03046FFF7B7FE0546012801D0CD
:1012E0002846D6E7314629A0FEF7C4FF37E0E0786C
:1012F000A17802970091019063782278314628A066
:10130000FEF7B8FF3A4621463046FFF7F1FD0546A5
:10131000012801E004E021E001D02846B9E71EE001
:101320003046FFF797FD294801880088401C274A6E
:10133000108000230A4602910121304600F0FCF99A
:101340000546B04209D0214800882149884202D18F
:1013500020481E49088028469BE700E000BF00BFE8
:10136000012096E725643A436F6E6E656374656489
:1013700020746F202D2025642E25642E25642E25B3
:1013800064203A2025640D0A0000000025643A53C9
:101390006F636B657420436C6F7365640D0A0000A6
:1013A00025643A54727920746F20636F6E6E6563A2
:1013B0007420746F207468652025642E25642E25A2
:1013C000642E2564203A2025640D0A003C0000208C
:1013D000FFFF000050C300000EB51AA103C902911F
:1013E000019000BF06E059201849086016200860E7
:1013F00088200860154800680128F4D100BFFFF775
:10140000DFFB00BF00201149086000BF01228901F5
:101410000F48FFF7FDFAFFF72FFB0EA0FEF72AFF9C
:101420000FA0006800900F4C0AA0FEF723FF234690
:101430006A4601A90120FFF7DDFE06A0FEF71AFFAC
:1014400000BFFEE76B68626E68000000000100509C
:10145000004000506869206B68616E680000000001
:10146000C0A80167891300000B49096809680029B1
:1014700001D1012100E00021002904D00021C9434D
:10148000064A116006E004490968C968C868034A49
:101490004168116070470000040000203000002007
:1014A000F7B582B00446164600200190002500BF23
:1014B000082C02DD401E05B0F0BD00BF00BFA1003A
:1014C000491CC800FFF728FC0007000F012802D0C4
:1014D0000420C043EFE700BF00BF002E02D10D2063
:1014E000C043E8E700BFA100491CC9000F22520217
:1014F0008818FFF711FC8006050CB54200DA2E466D
:101500003EE02046FFF708FE0546A100491CC90041
:10151000032212028818FFF7FFFB01900198172899
:1015200020D001981C2817D1002D00D029E020469A
:10153000FFF729FE0746A100491CC9001F2212021D
:101540008818FFF7E9FB800287420BD12046FFF79E
:1015500081FC0620C043AEE72046FFF77BFC062057
:10156000C043A8E70120A04014490988084000288A
:1015700003D0002D01D100209DE7002D00D000E018
:10158000BFE700BFB54200DA2E4632462046039937
:1015900000F050FAA100491CC900C81DF9304021D3
:1015A000FFF74EFC00BFA100491CC900C81DF9305F
:1015B000FFF7B2FB0028F6D130467CE74000002060
:1015C000F7B5044615460026002700BF082C01DDAC
:1015D000701EFEBD00BF00BFA100491CC800FFF780
:1015E0009BFB0007000F012802D00420C043F0E756
:1015F00000BF00BF002D02D10D20C043E9E700BFAE
:10160000A100491CC900032212028818FFF784FBBD
:101610000646172E04D01C2E02D00620C043D8E761
:101620000120A04042490988084000282AD0A10092
:10163000491CC900C81DFF30FA30FFF76DFBC60614
:10164000F60E10203040002810D0A100491CC9001F
:10165000C81DFF30FA301021FFF7F2FB0120A04037
:10166000334909888143324801800BE0082030402B
:10167000002805D02046FFF7EDFB0C20C043A8E76B
:101680000020A6E7A100491CC9001F2212028818E9
:10169000FFF742FB8006070CBD4200DD3D4624E01B
:1016A0002046FFF770FD0746A100491CC900032230
:1016B00012028818FFF730FB0646172E07D01C2EA3
:1016C00005D02046FFF7C6FB0620C04381E7012076
:1016D000A040184909880840002803D0BD4201DD18
:1016E000002076E7BD4200DC00E0D9E700BF2A46D3
:1016F0002046019900F0E1F9A100491CC900C81D6C
:10170000F9302021FFF79CFB00BFA100491CC90054
:10171000C81DF930FFF700FB0028F6D10120A040DA
:1017200003490988084302490880284651E7000018
:101730004200002040000020F8B504460E4617463F
:101740001D4600BF082C02DD0020C043F8BD00BFCD
:10175000012E06D0022E10D0032E10D0042E0FD151
:101760000CE0042269460F200002FFF719FB0098E5
:10177000002801D1C01EE9E700BF00BF00BF02E0A2
:101780000420C043E2E700BF04202840002802D024
:101790000520C043DAE7002D22D0012E02D0022E10
:1017A0001CD106E021202840002801D1801FCDE770
:1017B00015E020202840002805D08020284000285F
:1017C00001D1801FC2E710202840002805D08020CA
:1017D0002840002801D1801FB8E700E000BF00BF0B
:1017E0002046FFF737FB2A46F0231A4032431146C2
:1017F000A200521CD000FFF723FB002F0ED12F4870
:1018000007880088401C2D490880084600882C491C
:10181000884203D103208003284908803912A2009E
:10182000521CD20001239B02D018FFF709FBF9B22A
:10183000A200521CD20001239B02D218D01DF93005
:10184000FFF7FEFAA100491CC900C81DF9300121AB
:10185000FFF7F6FA00BFA100491CC900C81DF93006
:10186000FFF75AFA0028F6D10120A040154909884F
:10187000814314480180E807C00FA040114909883E
:101880000843104908800120A0400F49098881437E
:101890000D480180002061000C4A50520C49085547
:1018A00000BFA100491CC900032212028818FFF7DB
:1018B00033FA0028F5D060B248E700003E0000206F
:1018C000F0FF000040000020420000207C010020CA
:1018D0004400002010B5044610A02168FEF7CAFCA1
:1018E00011A06168FEF7C6FC12A0A168FEF7C2FC59
:1018F00013A0E168FEF7BEFC14A02169FEF7BAFC54
:1019000015A06169FEF7B6FC16A0A169FEF7B2FC4E
:1019100017A0E169FEF7AEFC10BD00007230202078
:101920003D20307825780A00723120203D20307823
:1019300025780A00723220203D20307825780A0070
:10194000723320203D20307825780A007231322011
:101950003D20307825780A006C7220203D203078B8
:1019600025780A00706320203D20307825780A0011
:10197000707372203D20307825780A0001460A698C
:101980004B68886898608B684868586050688842DF
:1019900001D188685060002008611068401E106006
:1019A0001068704742684A6093688B60936859601A
:1019B0009160086103685B1C036070471848006809
:1019C000002803D001201749086027E000201549AE
:1019D00008601548016800E0491E14204843134A76
:1019E0001058002801D1012000E000200028F3D188
:1019F00014224A430D4BD018426852684260024696
:101A000008324368934202D1426852684260426899
:101A1000D268074B1A600448016000BF704700009D
:101A2000380000202400002018000020B40000200E
:101A300000000020F7B582B00446164600250020BD
:101A40000190002E01D105B0F0BDA100491CC900D4
:101A50000522D2028818FFF75FF90702A100491C8E
:101A6000C9000522D2028918C81DF930FFF754F9C0
:101A7000381885B22902A000C01CC00008180190C7
:101A8000324603990198FFF78BF9A81985B22912FC
:101A9000A200521CD2000523DB02D018FFF7D0F9B8
:101AA000E9B2A200521CD2000523DB02D218D01DDD
:101AB000F930FFF7C5F900BFC5E7F7B582B00446B6
:101AC0001646002500200190002E01D105B0F0BD82
:101AD000A100491CC900092292028818FFF71CF9CD
:101AE0000702A100491CC900092292028918C81DD9
:101AF000F930FFF711F9381885B22902A000801CCF
:101B0000C00008180190324603990198FFF799F92F
:101B1000A81985B22912A200521CD20009239B02E7
:101B2000D018FFF78DF9E9B2A200521CD2000923A8
:101B30009B02D218D01DF930FFF782F900BFC5E72C
:101B40007047704701200149886370470042005088
:101B500000200149886370470042005010B5002200
:101B600016E0FF230C4C236223461B680124234309
:101B7000094C2360531CDAB24B1E99B200BF064BCE
:101B80001B68DB07DB0F002BF9D1034B1B69835468
:101B90000029E6D110BD000000000340FF200949E4
:101BA000086208460068012108430649086000BF32
:101BB00004480068C007C00F0028F9D10148006937
:101BC000C0B270470000034010B5002213E0835CF0
:101BD0000A4C236223461B6801242343074C2360DD
:101BE000531CDAB24B1E99B200BF044B1B68DB07D3
:101BF000DB0F002BF9D10029E9D110BD0000034013
:101C000007490862096801221143054A116000BFB3
:101C100003490968C907C90F0029F9D170470000B5
:101C200000000340F8B5002000903B480068002801
:101C300064D13A480068451C38480560002D0FD132
:101C400037480768374800683549086035480760F5
:101C500035480068401C34490860FFF705FC00BFA8
:101C60003248006885423DD300BF2D4800680068B7
:101C7000002801D1012000E00020002804D000202D
:101C8000C0432A4908602CE025480068C068C46841
:101C90006668B54202D22548066022E0201DFFF7A3
:101CA0006DFEA06A002803D020461830FFF766FEBC
:101CB0001F49E06A0968884202D91D49E06A086044
:101CC0001422E16A51431B4A8818211DFFF76AFE5E
:101CD0001949E06A0968C96A8842C6D301200090A0
:101CE000C3E700BF14480068C06A14214843114983
:101CF0000858012801D90120009004E00F4800682D
:101D0000401C0E4908600E480068002801D00120E0
:101D100000900098F8BD000038000020140000205A
:101D200004000020080000202800002030000020CF
:101D300018000020B4000020000000202000002037
:101D40002400002000000000040000000C0000003F
:101D50002400000000000000040000002C0000002F
:101D60000000000000000000040000002C00000043
:101D700000000000010001014000000000020020FE
:101D800000060020800600200000000030313233C1
:101D9000343536373839414243444546403058009F
:101DA00030313233343536373839616263646566D1
:101DB00040307800D41D000000000020B400000076
:101DC00004010000881E0000B4000020F409000097
:101DD00020010000000000000000000000000000E2
:101DE00000000000000000000000000000000000F3
:101DF00000000000000000000000000000000000E3
:101E000000000000000000000000000000000000D2
:101E100050C300C0000000000000000000000000EF
:101E2000010257353530300000000000411B000032
:101E3000431B0000511B0000451B00009D1B0000C0
:101E4000011C00005D1B0000C91B00000000000019
:101E500000000000000000000000000080F0FA0216
:101E60003200000080F0FA02001BB7000000000002
:101E700080F0FA02102700000000000000000000BF
:081E8000000000000080510188
:0400000500000211E4
:00000001FF
