:020000040000FA
:10000000C80500200902000029020000ED010000DF
:1000100000000000000000000000000000000000E0
:10002000000000000000000000000000410F000080
:100030000000000000000000AB01000011100000F3
:1000400033020000330200003302000033020000DC
:1000500033020000330200003302000033020000CC
:1000600033020000330200003302000033020000BC
:1000700033020000330200003302000033020000AC
:10008000330200003302000033020000330200009C
:10009000330200003302000033020000330200008C
:1000A000330200003302000033020000330200007C
:1000B000330200003302000033020000330200006C
:1000C00000F002F800F046F80CA030C808382418F8
:1000D0002D18A246671EAB4654465D46AC4201D180
:1000E00000F038F87E460F3E0FCCB646012633426C
:1000F00000D0FB1AA246AB463343184784140000D5
:10010000A4140000103A02D378C878C1FAD8520774
:1001100001D330C830C101D504680C6070470000BD
:100120000023002400250026103A01D378C1FBD813
:10013000520700D330C100D50B60704710B5782945
:1001400002D100F0A1F810BD002010BD1FB51FBDE9
:1001500010B510BD00F080FA1146FFF7F7FF01F06F
:1001600017F800F098FA03B4FFF7F2FF03BC00F0B1
:100170009FFA0000084B19680868203080F309884E
:10018000022080F31488BFF36F8F3FBCAE4608BCDB
:1001900004BC62B6184700002C000020EFF310806A
:1001A00072B6704780F310887047EFF309800E4BEA
:1001B0001A6820381060F0C044464D4656465F46E7
:1001C000F0C008B572B601F0CBF862B60CBC11688D
:1001D00008681030F0C8A046A946B246BB4680F376
:1001E00009882038F0C818472C00002004207146E8
:1001F000084202D0EFF3098001E0EFF30880714676
:10020000004A1047B50D00000D480E4901600E4927
:1002100001600E4901600E4A0E4911600021016023
:100220000D4880470D480047FEE7FEE7FEE7FEE782
:10023000FEE7FEE70A480B49094A0B4B70470000EE
:100240000001005059000000160000008800000066
:1002500024000050A55A000099100000C1000000C1
:10026000C8010020C8050020C80100200FB40549BE
:1002700010B503AA029800F0C3F910BC08BC04B082
:10028000184700006C00002070B504460D4621465A
:100290001068C046C0462188090502D50F4A7A4435
:1002A00002E00E4A7A440E3223460021243305E050
:1002B00006070009360F965D5E54491C0028F7D1E9
:1002C00020780023000705D5702D03D0002901D028
:1002D00002231132204600F03AF970BDB612000038
:1002E000F3B50446002081B020622046E1688847CB
:1002F00000287AD0252802D06268A16871E0E16800
:1003000020460025884706460020E0610746A06198
:100310002A2E0AD0304600F01DFF002827D0B80052
:100320000019303E0090866119E00298BA00121957
:1003300002C8916102902046E1688847012F064675
:1003400017D1E06900281FDA202085431CE00098BF
:100350000A21806948430099801930388861204615
:10036000E1688847064600F0F5FE0028EFD1012F2E
:100370000AD02E2E08D12046E16888470646202064
:1003800005437F1C022FC3DBA069002803DA40422B
:10039000A06101200543E80701D010208543002E0D
:1003A00023D030464138192803D80120C002054324
:1003B0002036204625603146029A1546FFF7BEFEDC
:1003C00000280BD0012806D0ED1DE808C000083039
:1003D00002908AE709E02D1D029586E762683046A3
:1003E000A1689047206A401C7EE7206AFEBD00227B
:1003F00003098B422CD3030A8B4211D300239C4662
:100400004EE003460B433CD4002243088B4231D3D9
:1004100003098B421CD3030A8B4201D394463FE06D
:10042000C3098B4201D3CB01C01A524183098B42CD
:1004300001D38B01C01A524143098B4201D34B01B6
:10044000C01A524103098B4201D30B01C01A524119
:10045000C3088B4201D3CB00C01A524183088B42A0
:1004600001D38B00C01A524143088B4201D34B0089
:10047000C01A5241411A00D20146524110467047FB
:100480005DE0CA0F00D04942031000D34042534000
:1004900000229C4603098B422DD3030A8B4212D3C0
:1004A000FC22890112BA030A8B420CD389019211F2
:1004B0008B4208D3890192118B4204D389013AD02F
:1004C000921100E08909C3098B4201D3CB01C01A04
:1004D000524183098B4201D38B01C01A5241430917
:1004E0008B4201D34B01C01A524103098B4201D305
:1004F0000B01C01A5241C3088B4201D3CB00C01A72
:10050000524183088B4201D38B00C01A5241D9D289
:1005100043088B4201D34B00C01A5241411A00D20A
:100520000146634652415B10104601D34042002B06
:1005300000D54942704763465B1000D3404201B585
:100540000020C046C04602BD704770477047FFB5E7
:1005500004460D4681B0243000902168880604D5F9
:100560001022E0699143216000E00120A84201DDF2
:10057000471B00E000270498A1697A191018081A8F
:10058000A0612078C00602D42046C046C04600269E
:1005900008E003986268A168805D9047206A401C6B
:1005A000761C206204988642F3DB2078C0060AD5C8
:1005B0002046C046C04606E06268A16830209047E9
:1005C000206A401C206238467F1E0028F4DC07E0C9
:1005D00000986268A168405D9047206A401C2062D4
:1005E00028466D1E0028F3DC2046C046C046207811
:1005F000000602D5022005B0F0BD0120FBE7000097
:10060000084B70B50D467B4400F013F804462846AD
:1006100000F0B2FD002802D00020C04370BD20468B
:1006200070BD0000770B000001694A1C0261087868
:10063000704700B58FB002910021059105490193E3
:1006400079440391114604906846FFF749FE0FB0C4
:1006500000BD0000E5FFFFFF754600F025F8AE463F
:10066000050069465346C008C000854618B020B54D
:10067000FFF7E0FD60BC00274908B6460026C0C56C
:10068000C0C5C0C5C0C5C0C5C0C5C0C5C0C5403D4A
:1006900049008D46704710B50446C046C046204606
:1006A000FFF761FD10BD00000048704768010020A1
:1006B00001491820ABBEFEE726000200704700008B
:1006C0001FB50C4C1ECC03946C460EC4810F8900E0
:1006D0006A465158084A89184968C306DB0E012248
:1006E0009A401143820F92006B469A58024BD218DF
:1006F00051601FBD08150000000200500249096842
:100700000143014A116070470002005010B500F02B
:1007100091FC0148006810BD74000020FEB5002067
:1007200002901AA0006800901948046A0013204043
:10073000002801D00020FEBD0120C0042040002878
:1007400001D0144D00E0144D012040042040002849
:1007500001D02846EFE7032080032040800B694644
:100760000A5C0192E005C00D861C1F20400220405B
:10077000400A871C019A7A431146AA087243104620
:10078000FFF735FE800002900298D4E701020204D0
:100790000002005000805101001BB700FEB5002090
:1007A00002901AA0006800901948046A00132040C3
:1007B000002801D00020FEBD0120C00420400028F8
:1007C00001D0144D00E0144D0120400420400028C9
:1007D00001D02846EFE7032080032040800B6946C4
:1007E0000A5C0192E005C00D861C1F2040022040DB
:1007F000400A871C019A7A431146AA0872431046A0
:10080000FFF7F5FD800002900298D4E70102020490
:100810000002005000805101001BB700FEB500200F
:1008200002901AA0006800901948046A0013204042
:10083000002801D00020FEBD0120C0042040002877
:1008400001D0144D00E0144D012040042040002848
:1008500001D02846EFE7032080032040800B694643
:100860000A5C0192E005C00D861C1F20400220405A
:10087000400A871C019A7A431146AA08724310461F
:10088000FFF7B5FD800002900298D4E70102020450
:100890000002005000805101001BB70070B50446F3
:1008A0000D461848C06810210840064615480068E3
:1008B000042108431349086000BF1248C068102192
:1008C00008400028F9D00F480069C008C000C01DCA
:1008D0000C490861084680690009000128438861C5
:1008E00008460069C008C0002043086100F0A2FB70
:1008F000002E05D10348006804218843014908609F
:1009000070BD000000020050F7B584B00022002343
:10091000184C2546E0CDE4680297019600950394B3
:100920008403240E002C0ED00403A40FA400124D47
:1009300063198403250E8405E40EA5401C68AC43AE
:10094000069D2C431C600401640F002C10D0840011
:10095000A40FA4006D462C59074D083D62190401EF
:10096000650FC401E40EA5401468AC430C43146049
:1009700007B0F0BDF8140000180200500146074A05
:1009800005E01046521E002801DC00207047044894
:10099000C06808408842F4D10120F7E7804F120078
:1009A0000002005000B5FF220021104600F092F92D
:1009B0000021082000F0CEF946490A2000F0CAF9CB
:1009C00003218902042000F0C5F94349062000F004
:1009D000C1F900210C2000F0BDF900210E2000F02B
:1009E000B9F90A2000F000F93C490880E0213820DC
:1009F00000F0BDF9382000F005F9394908700F21E1
:100A0000402000F0B4F9382000F0FCF834490870B8
:100A100032224221802000F05DF92E491331C62098
:100A200000F098F91221C42000F0A1F92D49CA2044
:100A300000F090F93621E42000F099F93021E5200A
:100A400000F095F92D21E22000F091F96921E320D1
:100A500000F08DF96921E02000F089F97421E1208E
:100A600000F085F9E42000F0CDF81D490870E5207C
:100A700000F0C8F81A490870E22000F0C3F81849DD
:100A80000870E32000F0BEF815490870E02000F07F
:100A9000B9F813490870E12000F0B4F81049087063
:100AA00008460078742802D101200F498863FF218D
:100AB0002331142000F03AF9FF210131102000F019
:100AC00035F91F2000F0A8F804221F21802000F033
:100AD00001F900BDFF0B0000FF1100006A000020BB
:100AE00069000020DC050000C0420050F0B505465A
:100AF0000E4600274CE080221F21104600F0EAF845
:100B000080221F21A02000F0E5F80A221C21A0204D
:100B100000F0E0F8002F14D103218902022000F038
:100B200019F903208002281881B2062000F012F97A
:100B3000002211467A2000F0CDF83146284600F018
:100B400087F808221F21802000F0C4F8002400BF8D
:100B50001C2000F057F80A210840002806D1601C2C
:100B600080B204467D21C9008842F1D31C2000F0E8
:100B700049F802210840002804D17D20C0008442A9
:100B800000D206E008221F21A02000F0A3F800E018
:100B9000B1E700BFF0BD000008B50246C806C00EB0
:100BA00010436B46187018780E4B18621846006890
:100BB000012318430B4B186000BF0A480068C007A8
:100BC000C00F0028F9D180200840002803D0054834
:100BD00000696B46587003480069C3B268464370A9
:100BE000407808BD0000034030B50446204600F0C0
:100BF00009F80546611CC8B200F004F80002281884
:100C000080B230BD10B50446204600F005F82146FC
:100C10000020FFF7C1FF10BD10B504466020204042
:100C20000A49097888420FD003221F21A02000F032
:100C300051F86020204005490870084600784211AC
:100C40001F21802000F046F810BD00006800002041
:100C500018B502467A246B461C70FF245C701B7822
:100C60001B4C236223461B6801242343184C23603A
:100C700000BF174B1B68DB07DB0F002BF9D16B465E
:100C80005B78134C236223461B6801242343104CDA
:100C9000236000BF0E4B1B68DB07DB0F002BF9D175
:100CA000002011E00B5C0A4C236223461B680124E0
:100CB0002343074C236000BF054B1B68DB07DB0F9A
:100CC000002BF9D1431C98B29042EBDB18BD000019
:100CD0000000034018B5CB06DB0E03436C462370BF
:100CE0006B465A701B78104C236223461B68012404
:100CF00023430D4C236000BF0B4B1B68DB07DB0F4E
:100D0000002BF9D16B465B78074C236223461B68A6
:100D100001242343044C236000BF034B1B68DB0703
:100D2000DB0F002BF9D118BD0000034030B504469D
:100D30000D462146D42000F01AF8E9B2D62000F082
:100D400016F800BFEA20FFF75DFFC007C00F0028BC
:100D5000F8D130BD30B505460C46E1B2284600F06A
:100D600006F821126A1CD0B200F001F830BD30B58F
:100D700004460D462046FFF74FFF2A4621464020F5
:100D8000FFF7A8FF30BD70B5034600200FE0012437
:100D900084400C40002C09D01C6846000325B54057
:100DA000AC4346001546B5402C431C60401C10283F
:100DB000EDD370BD044604A0FFF758FA204600F0BA
:100DC0005BFA00BFFEE70000496E204861726420B4
:100DD0004661756C742048616E646C65720A00002F
:100DE00030B583680D24A3430C46144308252C43D7
:100DF0002343836030BD000008B507482023042248
:100E000000210090054800F00BF800220121034862
:100E1000FFF7E6FF08BD000080841E0000000340CD
:100E2000FFB583B004460C9E00270698202801D108
:100E3000002006900698C0000499084305990843CD
:100E40002060E06B0121C9070843E063FFF75EFC07
:100E500002900498002863D1A060384840691021AE
:100E60000840102801D1029F02E0FFF757FC074617
:100E7000029886420BD331484069102188431030D4
:100E80002E49486100206060029807B0F0BDBE4264
:100E900003D3002060603846F7E7002E0AD1E06BEC
:100EA00040004008E0636068000A0002FF306060B4
:100EB000780AEAE70A21794308463146FFF797FAAC
:100EC000401D0A210190FFF792FA451EFF2D1DD902
:100ED000E06B40004008E06371000A227A4310464C
:100EE000FFF785FA401D0A210190FFF780FA451EA1
:100EF000FF2D00D9FF256068000A000228436060CA
:100F0000681C41003846FFF772FABEE76068000AC5
:100F1000000228436060691C3846FFF768FAB4E7AE
:100F20001020A06005484069102188431030034913
:100F30004861002060600298A7E7000000020050AE
:100F40007047000010B50120FFF7D8FB0120FFF724
:100F500015FD00210846FFF7A1FC002211461948A3
:100F6000FFF7D2FC002210211748FFF7CDFC1548EF
:100F7000FFF7A6FB1448FFF7A3FB05200007406B13
:100F8000800880000521090748630846406B03215B
:100F900008430521090748630846806B00090001E2
:100FA00088630846806B0F21084305210907886381
:100FB000064800690549086108460069086100F0B3
:100FC00039F810BD103D80570C00405240000050D1
:100FD00000B50346184600F001F800BD00BF0B49FC
:100FE00089690122D20511400029F8D1074908601A
:100FF0000A280AD100BF054989690122D20511409A
:101000000029F8D10D21014A116070470000054008
:1010100010B5FFF7C3F8044600F0DEF9002803D04E
:1010200001200007024948602046FFF7BBF810BDC9
:1010300000ED00E070B5FFF7F1FB114908601148C1
:10104000006945076D0F022D03D0A8000E490C580A
:1010500001E00B4804680B4880690007000F461C3C
:1010600031462046FFF7C3F9084908600849074898
:1010700000684A108018FFF7BAF90649086070BD89
:101080007C0000200002005080000020740000203E
:1010900040420F007800002070470000F0B587B094
:1010A00004460D46274801460EC9C06803AE0EC669
:1010B0000690002002902448406903210906084058
:1010C000060E214880690F2109020840070A002006
:1010D00020630320E060A0681C490840A060012E46
:1010E00004D1FFF75BFBB10003AA5050002D26D0BE
:1010F000B10003AA5058791CFFF779F96908401824
:1011000029460190FFF773F9801E0290104902985A
:1011100088420FD9B10003AA5058791CFFF767F92C
:10112000E900401829460190FFF761F90009801E87
:10113000606204E00321090702980843606207B077
:10114000F0BD000028150000000200500FFFF0FF66
:10115000FFFF000030380A2801D20120704700202C
:101160007047014600BF7D22D2004A43104600E08E
:10117000401E0028FCD1704701460020C043704744
:1011800030B504460D462046FFF722FF204630BD0D
:1011900000BF06E059202449086016200860882016
:1011A0000860214800680128F4D100BFFFF7CAFE9B
:1011B000012251031D48FFF7E6FD012291031B4860
:1011C0008030FFF7E0FD0122D10318488030FFF79F
:1011D000DAFD00BF00201449086000BFE121490288
:1011E0001348FFF75BFFFFF707FE00201149486334
:1011F000FFF7D8FB00200F49486314E00E492A206E
:10120000FFF774FC0D48FFF7ACFF0A488030C06B55
:101210000121484007498031C8630648406B0121DD
:10122000484004494863E9E700010050404000504D
:1012300000000540404200500000002088130000DC
:101240000B4909680968002901D1012100E000214A
:10125000002904D00021C943064A116006E0044970
:101260000968C968C868034A41681160704700008E
:10127000300000205C00002010B5044610A021685A
:10128000FEF7F4FF11A06168FEF7F0FF12A0A1685D
:10129000FEF7ECFF13A0E168FEF7E8FF14A0216958
:1012A000FEF7E4FF15A06169FEF7E0FF16A0A16953
:1012B000FEF7DCFF17A0E169FEF7D8FF10BD0000C4
:1012C000723020203D20307825780A0072312020AD
:1012D0003D20307825780A00723220203D20307879
:1012E00025780A00723320203D20307825780A00C6
:1012F000723132203D20307825780A006C7220202F
:101300003D20307825780A00706320203D20307819
:1013100025780A00707372203D20307825780A0005
:1013200001460A694B68886898608B68486858600D
:101330005068884201D188685060002008611068B8
:10134000401E10601068704742684A6093688B6066
:10135000936859609160086103685B1C0360704783
:1013600018480068002803D001201749086027E0CA
:101370000020154908601548016800E0491E142046
:101380004843134A1058002801D1012000E00020F2
:101390000028F3D114224A430D4BD01842685268FA
:1013A0004260024608324368934202D14268526862
:1013B00042604268D268074B1A600448016000BF6F
:1013C000704700006400002050000020440000200E
:1013D000A00000202C000020F8B5002000903B4821
:1013E0000068002864D13A480068451C3848056008
:1013F000002D0FD137480768374800683549086025
:101400003548076035480068401C34490860FFF7DC
:1014100017FF00BF3248006885423DD300BF2D480A
:1014200000680068002801D1012000E000200028A9
:1014300004D00020C0432A4908602CE025480068F9
:10144000C068C4686668B54202D22548066022E0DA
:10145000201DFFF765FFA06A002803D02046183042
:10146000FFF75EFF1F49E06A0968884202D91D49FB
:10147000E06A08601422E16A51431B4A8818211D62
:10148000FFF762FF1949E06A0968C96A8842C6D352
:1014900001200090C3E700BF14480068C06A14210F
:1014A000484311490858012801D90120009004E05F
:1014B0000F480068401C0E4908600E48006800286C
:1014C00001D0012000900098F8BD000064000020C9
:1014D0004000002030000020340000205400002094
:1014E0005C00002044000020A00000202C00002010
:1014F0004C0000205000002000000000040000000C
:101500000C000000240000000000000004000000A7
:101510002C0000000000000000000000040000009B
:101520002C00000000000000001BB70000000000BD
:101530000000000000805101001BB7000000000007
:101540000000000000805101001BB70000000000F7
:10155000000000000080510130313233343536371D
:1015600038394142434445464030580030313233E7
:1015700034353637383961626364656640307800E7
:10158000A015000000000020A000000004010000E1
:1015900040160000A00000202805000020010000E7
:1015A000FFFFFFFFFFFF7469692D30360806000159
:1015B0000800060400017469692D3036C0A801775F
:1015C000000000000000C0A80101000000000000B1
:1015D000000000000000000000000000000000000B
:1015E00000000000000000000000000000000000FB
:1015F00000000000000000000000000000000000EB
:1016000000000000000000000000000000000000DA
:101610000000000080F0FA023200000080F0FA02C0
:10162000001BB7000000000080F0FA021027000045
:1016300000000000000000000000000000805101D8
:0400000500000209EC
:00000001FF
