:020000040000FA
:10000000401900204102000061020000ED010000E3
:1000100000000000000000000000000000000000E0
:10002000000000000000000000000000990B00002C
:100030000000000000000000AB0100000D0C0000FB
:100040006B0200006B0200006B0200006B020000FC
:100050006B0200006B0200006B0200006B020000EC
:100060006B0200006B0200006B0200006B020000DC
:100070006B0200006B0200006B0200006B020000CC
:100080006B0200006B0200006B0200006B020000BC
:100090006B0200006B0200006B0200006B020000AC
:1000A0006B0200006B0200006B0200006B0200009C
:1000B0006B0200006B0200006B0200006B0200008C
:1000C00000F002F800F046F80CA030C808382418F8
:1000D0002D18A246671EAB4654465D46AC4201D180
:1000E00000F038F87E460F3E0FCCB646012633426C
:1000F00000D0FB1AA246AB46334318471C1A000037
:100100003C1A0000103A02D378C878C1FAD85207D6
:1001100001D330C830C101D504680C6070470000BD
:100120000023002400250026103A01D378C1FBD813
:10013000520700D330C100D50B60704710B5782945
:1001400002D100F0BDF810BD002010BD1FB51FBDCD
:1001500010B510BD00F0DCFA1146FFF7F7FF00F014
:10016000ADFD00F0F4FA03B4FFF7F2FF03BC00F0BA
:10017000FBFA0000084B19680868203080F30988F2
:10018000022080F31488BFF36F8F3FBCAE4608BCDB
:1001900004BC62B61847000010000020EFF3108086
:1001A00072B6704780F310887047EFF309800E4BEA
:1001B0001A6820381060F0C044464D4656465F46E7
:1001C000F0C008B572B601F0A5F962B60CBC1168B2
:1001D00008681030F0C8A046A946B246BB4680F376
:1001E00009882038F0C81847100000200420714604
:1001F000084202D0EFF3098001E0EFF30880714676
:10020000004A10476D0B000070B505460C461646B7
:1002100002E00FCC0FC5103E102EFAD2082E02D3EA
:1002200003CC03C5083E042E07D301CC01C5361FFD
:1002300003E021782970641C6D1C761EF9D270BD14
:100240000D480E4901600E4901600E4901600E4AD9
:100250000E491160002101600D4880470D4800479C
:10026000FEE7FEE7FEE7FEE7FEE7FEE70A480B498A
:10027000094A0B4B70470000000100505900000074
:10028000160000008800000024000050A55A00005D
:10029000950C0000C100000040150020401900200E
:1002A000401500200FB4054910B503AA029800F0CC
:1002B00003FA10BC08BC04B0184700005800002026
:1002C00070B504460D4621461068C046C0462188D8
:1002D000090502D50F4A7A4402E00E4A7A440E32EA
:1002E00023460021243305E006070009360F965DFA
:1002F0005E54491C0028F7D120780023000705D55B
:10030000702D03D0002901D002231132204600F0C5
:100310007BF970BDDA170000F3B50446002081B008
:1003200020622046E168884700287AD0252802D03C
:100330006268A16871E0E1682046002588470646AA
:100340000020E0610746A0612A2E0AD0304600F066
:10035000A2FC002827D0B8000019303E009086612A
:1003600019E00298BA00121902C891610290204661
:10037000E1688847012F064617D1E06900281FDA97
:10038000202085431CE000980A2180694843009999
:100390008019303888612046E1688847064600F0B9
:1003A0007AFC0028EFD1012F0AD02E2E08D120464A
:1003B000E16888470646202005437F1C022FC3DBE7
:1003C000A069002803DA4042A06101200543E80744
:1003D00001D010208543002E23D030464138192803
:1003E00003D80120C002054320362046256031464F
:1003F000029A1546FFF7A2FE00280BD0012806D06E
:10040000ED1DE808C000083002908AE709E02D1DC4
:10041000029586E762683046A1689047206A401CD2
:100420007EE7206AFEBDF8B5042A2CD3830712D0DC
:100430000B78491C0370401C521E83070BD00B78AD
:10044000491C0370401C521E830704D00B78491CC2
:100450000370401C521E8B079B0F05D0C91ADF008A
:100460002023DE1B08C90AE0FFF7CEFEF8BD1D46BB
:1004700008C9FD401C46B4402C4310C0121F042A7A
:10048000F5D2F308C91A521EF0D40B78491C037038
:10049000401C521EEAD40B78491C0370401C012AF0
:1004A000E4D409780170F8BD002203098B422CD3F3
:1004B000030A8B4211D300239C464EE003460B43B4
:1004C0003CD4002243088B4231D303098B421CD316
:1004D000030A8B4201D394463FE0C3098B4201D308
:1004E000CB01C01A524183098B4201D38B01C01A40
:1004F000524143098B4201D34B01C01A52410309B7
:100500008B4201D30B01C01A5241C3088B4201D365
:10051000CB00C01A524183088B4201D38B00C01A12
:10052000524143088B4201D34B00C01A5241411A39
:1005300000D201465241104670475DE0CA0F00D01C
:100540004942031000D34042534000229C46030915
:100550008B422DD3030A8B4212D3FC22890112BA9B
:10056000030A8B420CD3890192118B4208D3890173
:1005700092118B4204D389013AD0921100E089098B
:10058000C3098B4201D3CB01C01A524183098B426C
:1005900001D38B01C01A524143098B4201D34B0155
:1005A000C01A524103098B4201D30B01C01A5241B8
:1005B000C3088B4201D3CB00C01A524183088B423F
:1005C00001D38B00C01A5241D9D243088B4201D3C8
:1005D0004B00C01A5241411A00D2014663465241B3
:1005E0005B10104601D34042002B00D549427047B2
:1005F00063465B1000D3404201B50020C046C046B0
:1006000002BD704770477047FFB504460D4681B084
:10061000243000902168880604D51022E0699143B7
:10062000216000E00120A84201DD471B00E0002717
:100630000498A1697A191018081AA0612078C006D8
:1006400002D42046C046C046002608E003986268EF
:10065000A168805D9047206A401C761C2062049847
:100660008642F3DB2078C0060AD52046C046C04645
:1006700006E06268A16830209047206A401C206232
:1006800038467F1E0028F4DC07E000986268A16805
:10069000405D9047206A401C206228466D1E00285D
:1006A000F3DC2046C046C0462078000602D5022072
:1006B00005B0F0BD0120FBE7084B70B50D467B444B
:1006C00000F013F80446284600F0ECFA002802D0A7
:1006D0000020C04370BD204670BD0000EB05000047
:1006E00001694A1C02610878704700B58FB0029119
:1006F0000021059105490193794403911146049025
:100700006846FFF709FE0FB000BD0000E5FFFFFFE0
:10071000754600F025F8AE46050069465346C00808
:10072000C000854618B020B5FFF7A0FD60BC0027CB
:100730004908B6460026C0C5C0C5C0C5C0C5C0C5AD
:10074000C0C5C0C5C0C5403D49008D46704710B505
:100750000446C046C0462046FFF705FD10BD000018
:1007600000487047DC14002001491820ABBEFEE7AA
:100770002600020070470000F3B589B00C46012046
:10078000000453490862099800280ED10846006801
:10079000012108434E490860012000F0BBF9002008
:1007A00006904C48089002250EE049480068042154
:1007B000084347490860102000F0ACF90120C0044C
:1007C00006904548089004254448844204D84010C7
:1007D000844201D9002712E04148844205D84010E4
:1007E000844202D90127640009E03E48844205D8CA
:1007F0004010844202D30327A40000E057E0002009
:10080000C043039000200190029034E029460898EC
:10081000FFF74AFE05903449059888422AD93349A2
:100820000598884226D2022007901EE0059E07996F
:100830004E432B48864215D34000864212D8A6422A
:1008400001D9301B00E0A01B049003990498884252
:1008500008D2049803900195079802900398002805
:1008600000D106E00798401C07902149079888426C
:10087000DCD900BF6D1C212DC8D9B80306990843E7
:100880000199891E490208430299891E08431049AB
:100890000862042000F03EF9781C019A504301469A
:1008A0000898FFF701FE029948430BB0F0BD099884
:1008B000002803D10F480649086202E00E480449A7
:1008C0000862042000F026F900F020F8EDE70000AF
:1008D00000020050001BB7000080510100C2EB0B6A
:1008E00000E1F50580F0FA02006A1800C0E1E400BA
:1008F000010200002EC200006FD6080002490968FC
:100900000143014A1160704700020050FEB500200B
:1009100002901AA0006800901948046A0013204051
:10092000002801D00020FEBD0120C0042040002886
:1009300001D0144D00E0144D012040042040002857
:1009400001D02846EFE7032080032040800B694652
:100950000A5C0192E005C00D861C1F204002204069
:10096000400A871C019A7A431146AA08724310462E
:10097000FFF79AFD800002900298D4E7010202047A
:100980000002005000805101001BB700FEB500209E
:1009900002901AA0006800901948046A00132040D1
:1009A000002801D00020FEBD0120C0042040002806
:1009B00001D0144D00E0144D0120400420400028D7
:1009C00001D02846EFE7032080032040800B6946D2
:1009D0000A5C0192E005C00D861C1F2040022040E9
:1009E000400A871C019A7A431146AA0872431046AE
:1009F000FFF75AFD800002900298D4E7010202043A
:100A00000002005000805101001BB70070B5044681
:100A10002248C0681021084005462148844200D978
:100A200004462048844200D204461C480068042141
:100A300008431A490860102000F06CF81748006954
:100A4000072108431549086108468069000900012B
:100A500088610846C068C007C00F002805D0610043
:100A60000020FFF789FE04460AE061000120C0046F
:100A7000FFF782FE04460948C06810210840054679
:100A80000121022000F010F8002D05D10348006874
:100A90000421884301490860600870BD00020050CD
:100AA00080F0FA0240787D0170B504460D46184882
:100AB000C068102108400646154800680421084314
:100AC0001349086000BF1248C06810210840002880
:100AD000F9D00F480069C008C000C01D0C4908616A
:100AE00008468069000900012843886108460069BA
:100AF000C008C0002043086100F09AF8002E05D11C
:100B000003480068042188430149086070BD000063
:100B1000000200500146074A05E01046521E002818
:100B200001DC002070470448C06808408842F4D1C6
:100B30000120F7E7804F12000002005070B5034615
:100B400000200FE0012484400C40002C09D01C68D8
:100B500046000325B540AC4346001546B5402C433E
:100B60001C60401C1028EDD370BD0000044604A09A
:100B7000FFF798FB204600F079FB00BFFEE700007E
:100B8000496E2048617264204661756C742048612A
:100B90006E646C65720A00007047000010B5042096
:100BA000FFF7ACFE1020FFF7B5FF00210720FFF78D
:100BB0007BFF0120FFF7A2FE0120FFF7ABFF0248F9
:100BC000FFF724FF10BD000080F0FA0200B50346D5
:100BD000184600F001F800BD00BF0B4989690122E9
:100BE000D20511400029F8D1074908600A280AD126
:100BF00000BF054989690122D20511400029F8D1B9
:100C00000D21014A116070470000054010B5FFF743
:100C1000C5FA044600F00EFE002803D001200007AC
:100C2000024948602046FFF7BDFA10BD00ED00E024
:100C300070B5FFF7ABFE1149086011480069450720
:100C40006D0F022D03D0A8000E490C5801E00B488F
:100C500004680B4880690007000F461C3146204697
:100C6000FFF722FC084908600849074800684A1055
:100C70008018FFF719FC0649086070BD6800002065
:100C8000000200506C0000206000002040420F0075
:100C900064000020704730380A2801D201207047D4
:100CA0000020704701460020C043704730B504461D
:100CB0000D462046FFF78AFF204630BD1CB500BF19
:100CC00006E059202D490860162008608820086039
:100CD0002A4800680128F4D100BFFFF75FFF00BF7A
:100CE00000202649086000BF012249012448FFF77F
:100CF00025FF0122D1032248FFF720FF01225103E3
:100D00001F484038FFF71AFF0022012189031C48C1
:100D10004038FFF713FF002001210091019019488E
:100D2000322219A103681A4800F056FD0020022162
:100D3000009101901748322217A10368184800F06B
:100D40004BFD00200321009101901648322216A18C
:100D50000368174800F040FD03220021012000F045
:100D600031FC1449086000231A46194611480068EE
:100D700000F084FC00F09CFB00201CBD0001005032
:100D800040400050000000205461736B203100008F
:100D900001140000040000205461736B2032000035
:100DA0001D140000080000205461736B2033000004
:100DB0002D1400000C000020F8B505460E4617481B
:100DC000076817480068001D00F0A4FA681C002896
:100DD00008D1002E06D012480168091D114800F004
:100DE000D8FA1AE07C190E4800684460BC4207D269
:100DF0000B480168091D0C48006800F0AFFA0CE0D0
:100E000007480168091D0948006800F0A7FA08486A
:100E10000068844201D206480460F8BD2400002026
:100E200010000020400100201800002014000020C5
:100E30004000002010B5044600F0B8FA20480068D1
:100E4000401C1F4908601F480068002808D11D4841
:100E500004600846006801280ED100F007F90BE095
:100E600019480068002807D116480068C06AE16A7E
:100E7000884201D81348046014480068401C134994
:100E800008601349E06A0968884202D91049E06A9B
:100E900008601422E16A51430E4A8818211D00F0AF
:100EA00078FA00F091FA08480068002807D0054851
:100EB0000068C06AE16A884201D200F095FA10BD6C
:100EC00020000020100000202C0000203C0000200A
:100ED000280000208C00002010B516E000F066FA13
:100EE0000C48C068C468201D00F014FA0A48006865
:100EF000401E0949086009480068401E074908600B
:100F000000F062FA204600F041F80448006800282A
:100F1000E4D110BD2C010020200000201C00002086
:100F2000F8B504460F46154600200090A66B206CCD
:100F3000002827D0002D0FD13946226C6068FFF7BA
:100F400072FA216C606840186060A168606888422D
:100F500018D32068606015E03946226CE068FFF71E
:100F600062FA216CE068411AE1602168E068884219
:100F700003D2216CA068411AE160022D02D1002E3B
:100F800000D0761E701CA0630098F8BD10B5044612
:100F9000206B00F027FA204600F024FA10BD000074
:100FA00000BFFFF799FF034800680128F9D900F056
:100FB0001BFAF6E78C000020F8B506460D461746EA
:100FC000069C002D01D1246000E02760E6632564C3
:100FD0000121204600F016FBF8BDFFB581B00E469A
:100FE0000A9F0C9C216B0398401E800008180090FB
:100FF0000098C008C0000090002E11D0002508E025
:10100000715D204634304155705D002800D102E00A
:101010006D1C102DF4D300BF00214320015502E0C8
:10102000002134200155052F00D30427E762201D3D
:1010300000F091F92046183000F08DF92461052068
:10104000C01BA0616462002060640021482001553B
:10105000049A0199009800F0F9F820600B98002894
:1010600001D00B98046005B0F0BD000010B500245D
:1010700006E0142161430E4A881800F05FF9641CF1
:10108000052CF6D30B4800F059F90B4800F056F93F
:101090000A4800F053F90A4800F050F9094800F0F6
:1010A0004DF904480849086003480849086010BD24
:1010B0008C000020F0000020040100201801002016
:1010C0002C01002040010020140000201800002006
:1010D00070B5054600F06AF9A86BE96B884201D14A
:1010E000012400E0002400F06FF9204670BD0000EC
:1010F0000B4909680968002901D1012100E000219C
:10110000002904D00021C943064A116006E00449C1
:101110000968C968C868034A4168116070470000DF
:10112000140000204000002000200449086188616C
:1011300003484861072008617047000000E000E0B4
:101140004FC3000072B600BFFEE770B5044600F062
:101150002DF94520055713E0606A002801D10120D0
:1011600000E00020002808D12046243000F0F2FBE7
:10117000002803D000F086F900E003E0681E45B2C5
:10118000002DE9DC00BF0021C9434520015500F0D6
:101190001BF900F00BF94420055713E020690028E3
:1011A00001D1012000E0002000280AD120461030A3
:1011B00000F0D0FB002801D000F064F9681E45B2B1
:1011C00000E001E0002DE9DC00BF0021C94344201C
:1011D000015500F0F9F870BD70B5044600256007B0
:1011E000400F002804D06007400F0821081A041996
:1011F00000F088F912480068002804D11148C0089E
:10120000C0000F4908601048006800192721C90173
:10121000884210D20C48006800190B4909688842BE
:1012200009D9074800680849096845180648006850
:1012300000190549086000F0CDFB284670BD00008C
:10124000540000205C01002050000020001F0123FA
:101250001B060360001F0160001F034B036014386E
:1012600002602038704700004511000010B50446A8
:1012700010A02168FFF716F811A06168FFF712F8B7
:1012800012A0A168FFF70EF813A0E168FFF70AF8B3
:1012900014A02169FFF706F815A06169FFF702F8AD
:1012A00016A0A169FEF7FEFF17A0E169FEF7FAFF9D
:1012B00010BD0000723020203D20307825780A00D3
:1012C000723120203D20307825780A0072322020AB
:1012D0003D20307825780A00723320203D20307878
:1012E00025780A00723132203D20307825780A00B6
:1012F0006C7220203D20307825780A007063202011
:101300003D20307825780A00707372203D203078B7
:1013100025780A0001460A694B68886898608B68DE
:10132000486858605068884201D188685060002041
:1013300008611068401E106010687047014608314F
:1013400041600021C943816001460831C1600161EB
:1013500000210160704700210161704710B502460D
:101360000B685C1C002C01D1106907E010460830A6
:1013700000E04068446824689C42FAD944684C60A4
:101380004C68A160886041600A611468641C146044
:1013900010BD42684A6093688B60936859609160A1
:1013A000086103685B1C03607047000072B6054863
:1013B0000068401C03490860BFF34F8FBFF36F8F75
:1013C000704700004C00002005480068401E04499A
:1013D000086008460068002800D162B67047000027
:1013E0004C000020704700000120000703494860BE
:1013F000BFF34F8FBFF36F8F7047000000ED00E029
:1014000009E00548406B01214840034948637D20BD
:10141000C00000F017F8F4E74042005002E001205D
:1014200001494863FBE700000042005007E002E08A
:101430000020034948630248806B0028F8D0F6E793
:101440000042005070B504460025002C08D000F082
:1014500059F800212046FFF7AFFC00F0BBFA054623
:10146000002D01D1FFF7C0FF70BD000003490968DE
:10147000016003490968416070470000380000209E
:10148000240000200120014908607047340000203A
:1014900070B505460C460548016818312846FFF727
:1014A0005DFF01212046FFF787FC70BD1000002082
:1014B0001CB50D4800210B463222009101900BA172
:1014C0000C4800F089F90446012C0CD172B60020BA
:1014D000C043094908600120084908600020084904
:1014E000086000F053F81CBD4400002049444C45FE
:1014F00000000000A10F0000400000202C00002090
:101500002400002002480068401C01490860704720
:101510004800002018480068002803D0012017491F
:10152000086027E00020154908601548016800E0C0
:10153000491E14204843134A1058002801D10120A5
:1015400000E000200028F3D114224A430D4BD018AC
:10155000426852684260024608324368934202D1B0
:101560004268526842604268D268074B1A60044879
:10157000016000BF704700004800002034000020D8
:10158000280000208C0000201000002010B50B481F
:10159000006AFF2109040843084908620846006AF6
:1015A000FF210906084305490862FFF7BDFD002039
:1015B00003490860FEF7DEFD002010BD00ED00E0ED
:1015C0004C000020F7B582B007460D46002D01D132
:1015D000002601E03E466E4330464830FFF7FCFDF2
:1015E0000446002C0BD00194019C20464830019009
:1015F000009429463846049B019AFFF7DDFC2046FB
:1016000005B0F0BD70B505460E462C46FFF7CEFE80
:10161000216CE06B484321684018A0600020A06363
:1016200020686060E06B401E216C484321684118CF
:10163000E1600021C9434420015545200155002E99
:1016400010D12069002801D1012000E000200028ED
:1016500010D12046103000F07DF900280AD0FFF7A5
:10166000C3FE07E020461030FFF768FE2046243016
:10167000FFF764FEFFF7A8FE012070BDFFB583B041
:1016800007461D46002002903C4600BFFFF78EFE35
:10169000A06BE16B884201D3022D1FD12A46204660
:1016A0000499FFF73DFC0646606A002801D101203D
:1016B00000E00020002808D12046243000F04AF93C
:1016C000002806D0FFF790FE03E0002E01D0FFF7C0
:1016D0008BFEFFF779FE012007B0F0BD05980028CA
:1016E00003D1FFF771FE0020F6E70298002804D12D
:1016F0006846FFF7BBFE01200290FFF765FEFFF78B
:1017000001FFFFF753FE44210857401C002802D177
:1017100000214420015545210857401C002802D1D2
:10172000002145200155FFF74FFE05A9684600F04E
:1017300023F8002819D12046FFF7CAFC00280ED054
:10174000204610300599FFF7A3FE2046FFF7FDFC69
:1017500000F040F9002899D1FFF746FE96E72046B1
:10176000FFF7F3FC00F036F990E72046FFF7EDFCB9
:1017700000F030F90020AFE770B506460C46FFF7E1
:1017800015FE134802687068131A2068401C002870
:1017900001D1002517E00F4930680968884204D05C
:1017A0007068904201D801250DE02068984207D961
:1017B0002068C01A20603046FFF758FE002502E07E
:1017C000002020600125FFF7FFFD284670BD0000C6
:1017D0002400002038000020FFB585B01746B8006F
:1017E000FFF7FAFC0646002E0BD04C20FFF7F4FC66
:1017F0000446002C01D0266304E03046FFF7F2FDDA
:1018000000E00024002C10D000220F990E986B46A7
:1018100013C303923A46089B06990598FFF7DDFB30
:101820002046FFF707FB012501E00025ED43284690
:1018300009B0F0BDF8B5002000903B4800680028D2
:1018400064D13A480068451C38480560002D0FD126
:1018500037480768374800683549086035480760E9
:1018600035480068401C34490860FFF741FC00BF60
:101870003248006885423DD300BF2D4800680068AB
:10188000002801D1012000E00020002804D0002021
:10189000C0432A4908602CE025480068C068C46835
:1018A0006668B54202D22548066022E0201DFFF797
:1018B00031FDA06A002803D020461830FFF72AFD2A
:1018C0001F49E06A0968884202D91D49E06A086038
:1018D0001422E16A51431B4A8818211DFFF759FD64
:1018E0001949E06A0968C96A8842C6D30120009094
:1018F000C3E700BF14480068C06A14214843114977
:101900000858012801D90120009004E00F48006820
:10191000401C0E4908600E480068002801D00120D4
:1019200000900098F8BD000048000020240000202E
:101930001400002018000020380000204000002083
:10194000280000208C000020100000203000002023
:101950003400002070B50646F068C4682046183090
:10196000FFF7D8FC15480068002813D1201DFFF7A9
:10197000D1FC1349E06A0968884202D91049E06A3B
:1019800008601422E16A51430E4A8818211DFFF7AE
:1019900000FD04E0214618310B48FFF7FAFC0B4923
:1019A000E06A0968C96A884204D90125012008490A
:1019B000086000E00025284670BD000048000020B7
:1019C000280000208C0000201801002010000020BA
:1019D0003400002070B500240026FFF7E7FC2D48F6
:1019E0000068401E2B4908600846006800284DD159
:1019F00029480068002849D022E02848C068C46807
:101A000020461830FFF786FC201DFFF783FC244991
:101A1000E06A0968884202D92149E06A0860142214
:101A2000E16A51431F4A8818211DFFF7B2FC1E4985
:101A3000E06A0968C96A884202D301201B4908602C
:101A400016480068002801D1012000E0002000288D
:101A5000D3D0002C01D0FFF74BFB15480568002DB3
:101A60000DD000BFFFF7E6FE002802D001200F498D
:101A700008606D1E002DF5D100200D4908600B484F
:101A80000068002802D00126FFF7AEFCFFF79CFC9F
:101A9000304670BD480000202000002018010020C2
:101AA000280000208C0000201000002034000020BE
:101AB0003000002030313233343536373839414246
:101AC00043444546403058003031323334353637A0
:101AD0003839616263646566403078005461736BC5
:101AE000312069732072756E6E696E672E0000007A
:101AF0005461736B322069732072756E6E696E6704
:101B00002E0000005461736B332069732072756E70
:101B10006E696E672E000000381B00000000002078
:101B20008C00000004010000C41B00008C00002099
:101B3000B418000020010000DC1A0000F01A0000B8
:101B4000041B000000000000000000000000000076
:101B50000000000000000000000000000000000085
:101B60000000000000000000000000000000000075
:101B70000000000000000000000000000000000065
:101B800000000000AAAAAAAA0000000000000000AD
:101B9000000000000000000080F0FA0232000000A7
:101BA00080F0FA02001BB7000000000080F0FA028B
:101BB00010270000000000000000000000000000EE
:041BC000008051014F
:0400000500000241B4
:00000001FF
