:020000040000FA
:10000000F00500204102000061020000ED01000047
:1000100000000000000000000000000000000000E0
:10002000000000000000000000000000990B00002C
:100030000000000000000000AB010000690C00009F
:100040006B0200006B0200006B0200006B020000FC
:100050006B0200006B0200006B0200006B020000EC
:100060006B0200006B0200006B0200006B020000DC
:100070006B0200006B0200006B0200006B020000CC
:100080006B0200006B0200006B0200006B020000BC
:100090006B0200006B0200006B0200006B020000AC
:1000A0006B0200006B0200006B0200006B0200009C
:1000B0006B0200006B0200006B0200006B0200008C
:1000C00000F002F800F046F80CA030C808382418F8
:1000D0002D18A246671EAB4654465D46AC4201D180
:1000E00000F038F87E460F3E0FCCB646012633426C
:1000F00000D0FB1AA246AB4633431847601D0000F0
:10010000801D0000103A02D378C878C1FAD852078F
:1001100001D330C830C101D504680C6070470000BD
:100120000023002400250026103A01D378C1FBD813
:10013000520700D330C100D50B60704710B5782945
:1001400002D100F0BDF810BD002010BD1FB51FBDCD
:1001500010B510BD00F0E4FA1146FFF7F7FF01F00B
:1001600081F800F0FCFA03B4FFF7F2FF03BC00F0E3
:1001700003FB0000084B19680868203080F30988E9
:10018000022080F31488BFF36F8F3FBCAE4608BCDB
:1001900004BC62B61847000000000020EFF3108096
:1001A00072B6704780F310887047EFF309800E4BEA
:1001B0001A6820381060F0C044464D4656465F46E7
:1001C000F0C008B572B601F0C5FB62B60CBC116890
:1001D00008681030F0C8A046A946B246BB4680F376
:1001E00009882038F0C81847000000200420714614
:1001F000084202D0EFF3098001E0EFF30880714676
:10020000004A10471D0A000070B505460C46164608
:1002100002E00FCC0FC5103E102EFAD2082E02D3EA
:1002200003CC03C5083E042E07D301CC01C5361FFD
:1002300003E021782970641C6D1C761EF9D270BD14
:100240000D480E4901600E4901600E4901600E4AD9
:100250000E491160002101600D4880470D4800479C
:10026000FEE7FEE7FEE7FEE7FEE7FEE70A480B498A
:10027000094A0B4B70470000000100505900000074
:10028000160000008800000024000050A55A00005D
:10029000F10C0000C1000000F0010020F00500207A
:1002A000F00100200FB4054910B503AA029800F030
:1002B0000BFA10BC08BC04B01847000080000020F6
:1002C00070B504460D4621461068C046C0462188D8
:1002D000090502D50F4A7A4402E00E4A7A440E32EA
:1002E00023460021243305E006070009360F965DFA
:1002F0005E54491C0028F7D120780023000705D55B
:10030000702D03D0002901D002231132204600F0C5
:1003100083F970BD5A1B0000F3B50446002081B07C
:1003200020622046E1688847002872D0252802D044
:100330006268A1689AE0E168204600268847054681
:100340000020E0610746A0612A2D0AD0284600F06F
:10035000F5FD002827D0B8000019303D00908561D8
:1003600019E00298BA00121902C891610290204661
:10037000E1688847012F054617D1E06900281FDA98
:10038000202086431CE000980A2180694843009998
:100390004019303888612046E1688847054600F0FA
:1003A000CDFD0028EFD1012F0AD02E2D08D12046F7
:1003B000E16888470546202006437F1C022FC3DBE7
:1003C000A069002803DA4042A06101200643F0073B
:1003D00001D0102086436C2D0AD0682D08D04C2DFA
:1003E0003CD06A2D38D0742D38D07A2D36D016E016
:1003F000E1682F4620468847B84205460AD16C2F4F
:100400002AD001208002E16806432046884705463D
:1004100005E02FE06C2F1DD0FF2001300643002D9A
:1004200028D028464138192803D80120C0020643A5
:100430002035204626602946029A1646FFF77EFEA2
:10044000002810D001280BD0F61DF008C00008309D
:10045000029066E74020E1E78020D4E70020D2E761
:10046000361D02965DE762682846A1689047206ABB
:10047000401C55E7206AFEBD01E004C0091F0429A5
:10048000FBD28B0701D50280801CC90700D0027007
:10049000704700290BD0C30702D00270401C491ED0
:1004A000022904D3830702D50280801C891EE3E75A
:1004B0000022EEE70022DFE7002203098B422CD363
:1004C000030A8B4211D300239C464EE003460B43A4
:1004D0003CD4002243088B4231D303098B421CD306
:1004E000030A8B4201D394463FE0C3098B4201D3F8
:1004F000CB01C01A524183098B4201D38B01C01A30
:10050000524143098B4201D34B01C01A52410309A6
:100510008B4201D30B01C01A5241C3088B4201D355
:10052000CB00C01A524183088B4201D38B00C01A02
:10053000524143088B4201D34B00C01A5241411A29
:1005400000D201465241104670475DE0CA0F00D00C
:100550004942031000D34042534000229C46030905
:100560008B422DD3030A8B4212D3FC22890112BA8B
:10057000030A8B420CD3890192118B4208D3890163
:1005800092118B4204D389013AD0921100E089097B
:10059000C3098B4201D3CB01C01A524183098B425C
:1005A00001D38B01C01A524143098B4201D34B0145
:1005B000C01A524103098B4201D30B01C01A5241A8
:1005C000C3088B4201D3CB00C01A524183088B422F
:1005D00001D38B00C01A5241D9D243088B4201D3B8
:1005E0004B00C01A5241411A00D2014663465241A3
:1005F0005B10104601D34042002B00D549427047A2
:1006000063465B1000D3404201B50020C046C0469F
:1006100002BD704770477047FFB504460D4681B074
:10062000243000902168880604D51022E0699143A7
:10063000216000E00120A84201DD471B00E0002707
:100640000498A1697A191018081AA0612078C006C8
:1006500002D42046C046C046002608E003986268DF
:10066000A168805D9047206A401C761C2062049837
:100670008642F3DB2078C0060AD52046C046C04635
:1006800006E06268A16830209047206A401C206222
:1006900038467F1E0028F4DC07E000986268A168F5
:1006A000405D9047206A401C206228466D1E00284D
:1006B000F3DC2046C046C0462078000602D5022062
:1006C00005B0F0BD0120FBE7084B70B50D467B443B
:1006D00000F013F80446284600F049FD002802D037
:1006E0000020C04370BD204670BD0000A50A000078
:1006F00001694A1C02610878704700B58FB0029109
:100700000021059105490193794403911146049014
:100710006846FFF701FE0FB000BD0000E5FFFFFFD8
:10072000754600F025F8AE46050069465346C008F8
:10073000C000854618B020B5FFF798FD60BC0027C3
:100740004908B6460026C0C5C0C5C0C5C0C5C0C59D
:10075000C0C5C0C5C0C5403D49008D46704710B5F5
:100760000446C046C0462046FFF7FDFC10BD000011
:10077000004870478C01002001491820ABBEFEE7FD
:1007800026000200704700001FB50C4C1ECC0394DD
:100790006C460EC4810F89006A465158084A891870
:1007A0004968C306DB0E01229A401143820F920072
:1007B0006B469A58024BD21851601FBD141E0000A0
:1007C00000020050024909680143014A1160704764
:1007D0000002005010B500F059FA0148006810BD41
:1007E00088000020FEB5002002901AA0006800904A
:1007F0001948046A00132040002801D00020FEBDE3
:100800000120C0042040002801D0144D00E0144D08
:10081000012040042040002801D02846EFE70320B3
:1008200080032040800B69460A5C0192E005C00D00
:10083000861C1F2040022040400A871C019A7A43F0
:100840001146AA0872431046FFF736FE8000029058
:100850000298D4E701020204000200500080510116
:10086000001BB700FEB5002002901AA0006800909F
:100870001948046A00132040002801D00020FEBD62
:100880000120C0042040002801D0144D00E0144D88
:10089000012040042040002801D02846EFE7032033
:1008A00080032040800B69460A5C0192E005C00D80
:1008B000861C1F2040022040400A871C019A7A4370
:1008C0001146AA0872431046FFF7F6FD8000029019
:1008D0000298D4E701020204000200500080510196
:1008E000001BB70070B504460D461848C0681021BB
:1008F000084006461548006804210843134908606B
:1009000000BF1248C068102108400028F9D00F48E5
:100910000069C008C000C01D0C4908610846806914
:10092000000900012843886108460069C008C0002A
:100930002043086100F0AAF9002E05D103480068A1
:10094000042188430149086070BD00000002005086
:10095000F7B584B000220023184C2546E0CDE468AA
:1009600002970196009503948403240E002C0ED068
:100970000403A40FA400124D63198403250E8405FB
:10098000E40EA5401C68AC43069D2C431C6004018A
:10099000640F002C10D08400A40FA4006D462C59C5
:1009A000074D083D62190401650FC401E40EA5401E
:1009B0001468AC430C43146007B0F0BD041E000083
:1009C000180200500146074A05E01046521E002852
:1009D00001DC002070470448C06808408842F4D118
:1009E0000120F7E7804F12000002005070B5034667
:1009F00000200FE0012484400C40002C09D01C682A
:100A000046000325B540AC4346001546B5402C438F
:100A10001C60401C1028EDD370BD0000044604A0EB
:100A2000FFF740FC204600F021FF00BFFEE700007A
:100A3000496E2048617264204661756C742048617B
:100A40006E646C65720A00008168092291438160BE
:100A50007047000008B506480823042200210090D2
:100A6000044800F009F80348FFF7EEFF08BD000056
:100A700080841E0000000340FFB583B004460C9E36
:100A800000270698202801D1002006900698C00073
:100A900004990843059908432060E06B0121C907C8
:100AA0000843E063FFF796FE02900498002863D1A4
:100AB000A0603848406910210840102801D1029FE9
:100AC00002E0FFF78FFE0746029886420BD33148BB
:100AD00040691021884310302E4948610020606031
:100AE000029807B0F0BDBE4203D3002060603846D4
:100AF000F7E7002E0AD1E06B40004008E063606831
:100B0000000A0002FF306060780AEAE70A217943B0
:100B100008463146FFF7D0FC401D0A210190FFF73F
:100B2000CBFC451EFF2D1DD9E06B40004008E06363
:100B300071000A227A431046FFF7BEFC401D0A21CD
:100B40000190FFF7B9FC451EFF2D00D9FF25606815
:100B5000000A000228436060681C41003846FFF725
:100B6000ABFCBEE76068000A000228436060691CB5
:100B70003846FFF7A1FCB4E71020A06005484069A3
:100B800010218843103003494861002060600298BA
:100B9000A7E70000000200507047000010B50120D8
:100BA000FFF710FE0120FFF70DFF00210846FFF7B9
:100BB00099FE002211461948FFF7CAFE00221021B3
:100BC0001748FFF7C5FE1548FFF7DEFD1448FFF78D
:100BD000DBFD05200007406B800880000521090728
:100BE00048630846406B0321084305210907486311
:100BF0000846806B0009000188630846806B0F215E
:100C0000084305210907886306480069054908610A
:100C100008460069086100F039F810BD103D8057A2
:100C20000C0040524000005000B50346184600F04A
:100C300001F800BD00BF0B4989690122D2051140AE
:100C40000029F8D1074908600A280AD100BF0549E0
:100C500089690122D20511400029F8D10D21014AEC
:100C6000116070470000054010B5FFF797FA044681
:100C700001F02CF8002803D0012000070249486049
:100C80002046FFF78FFA10BD00ED00E070B5FFF7CA
:100C9000E9FD114908601148006945076D0F022DF3
:100CA00003D0A8000E490C5801E00B4804680B481B
:100CB00080690007000F461C31462046FFF7FCFB09
:100CC000084908600849074800684A108018FFF77B
:100CD000F3FB0649086070BD900000200002005040
:100CE000940000208800002040420F008C0000206B
:100CF0007047000038B504461F49C86880471E4940
:100D00004869804700BF1C48406A002803D01A4841
:100D1000806A002812D1FF2212042240100C164AC9
:100D2000116A8847FF2212022240100A124A116AF1
:100D30008847E0B2104A116A884711E0FF2000049A
:100D40002040010C68460170FF2000022040010A8B
:100D500068464170847008480321826A684690475B
:100D60000549C869804705460349886980470249A3
:100D700008698047284638BD4C000020F8B5044675
:100D80000E4617462449C86880472349486980476A
:100D900000BF2148406A002803D01F48806A00280D
:100DA0001CD1FF2212042240100C1B4A116A8847F2
:100DB000FF2212022240100A174A116A8847E0B245
:100DC000154A116A8847002505E01349C86980471C
:100DD0007055681C85B2BD42F7DB16E0FF200004A9
:100DE0002040010C68460170FF2000022040010AEB
:100DF00068464170847008480321826A68469047BB
:100E000005483946426A3046904703498869804719
:100E1000014908698047F8BD4C00002038B50446F8
:100E20000D461E49C86880471C4948698047042010
:100E300004431A48806A002816D1FF221204224077
:100E4000100C164A116A8847FF2212022240100A2B
:100E5000124A116A8847E0B2104A116A88470F485F
:100E6000016A2846884712E0FF2000042040010C58
:100E700068460170FF2000022040010A6846417068
:100E80008470C57005480421826A6846904703490A
:100E90008869804701490869804738BD4C000020B7
:100EA000F8B504460E4617462349C86880472249CC
:100EB00048698047042004431F48806A00281CD1E9
:100EC000FF2212042240100C1B4A116A8847FF229D
:100ED00012022240100A184A116A8847E0B2164AE4
:100EE000116A8847002505E0705D134A116A88473A
:100EF000681C85B2BD42F7DB16E0FF2000042040ED
:100F0000010C68460170FF2000022040010A68467B
:100F10004170847008480321826A684690470648F9
:100F20003946826A304690470349886980470249BA
:100F300008698047F8BD00004C00002030380A28BE
:100F400001D20120704700207047000010B5044610
:100F500000BF082C02DD0020C04310BD00BFA1006F
:100F6000491CC900C81DF9301021FFF757FF00BF09
:100F7000A100491CC900C81DF930FFF7BBFE0028BD
:100F8000F6D1A100491CC900C81DFF30FA301F214D
:100F9000FFF744FF0120A0400F49098881430E4814
:100FA00001800120A0400D49098881430B48018040
:100FB000002061000A4A50520A49085500BFA100AA
:100FC000491CC900032212028818FFF793FE00286B
:100FD000F5D10120C1E700003E00002040000020C4
:100FE0007C0100204200002070B504460D461646E4
:100FF00000BF082C02DD0020C04370BD00BF00BF51
:10100000A100491CC800FFF775FE0007000F01286A
:1010100002D00420C043F0E700BF00BFA100491C7C
:10102000C900032212028818FFF764FE132802D0B9
:101030000220C043E1E700BF29780A02687811184E
:101040000A02A87811180A02E8781118481C00282A
:1010500001D0002902D10B20C043CEE7002E02D1DF
:101060000A20C043C9E7A100491CC900032292021B
:10107000881804222946FFF713FF3112A200521CE0
:10108000D20001231B03D018FFF7C8FEF1B2A20063
:10109000521CD20001231B03D218D01DF930FFF7D8
:1010A000BDFEA100491CC900C81DF9300421FFF78D
:1010B000B5FE00BFA100491CC900C81DF930FFF7EB
:1010C00019FE0028F6D10120A0401C4909880840DB
:1010D000002801D0002090E723E0A100491CC900AE
:1010E000C81DFF30FA30FFF705FE08210840002830
:1010F0000BD0A100491CC900C81DFF30FA300821DF
:10110000FFF78CFE0C20C04377E7A100491CC90003
:10111000032212028818FFF7EDFD002801D1001FFD
:101120006BE7A100491CC900032212028818FFF7CF
:10113000E1FD1728D1D101205FE700003E0000202B
:101140000120014988637047004200500020014996
:101150008863704700420050014600BF7D22D200E4
:101160004A43104600E0401E0028FCD1704701466B
:101170000020C043704730B504460D462046FFF7B7
:1011800053FD204630BD70B504460025002600BF43
:10119000A100491CC900132252028818FFF7AAFDBA
:1011A0000646A100491CC900132252028918C81D15
:1011B000F930FFF79FFD3102401886B2002E15D09E
:1011C000A100491CC900132252028818FFF792FDA2
:1011D0000546A100491CC900132252028918C81DE6
:1011E000F930FFF787FD2902401885B2B542CFD10B
:1011F000284670BD70B504460025002600BFA1003A
:10120000491CC900012252038818FFF773FD0646E6
:10121000A100491CC900012252038918C81DF930D8
:10122000FFF768FD3102401886B2002E15D0A100EC
:10123000491CC900012252038818FFF75BFD0546CF
:10124000A100491CC900012252038918C81DF930A8
:10125000FFF750FD2902401885B2B542CFD128468C
:1012600070BD00009EB0142230A119A8FEF7CCFF7B
:1012700000BF33A000680E9032A000680D9000BF40
:1012800006E0592030490860162008608820086070
:101290002D4800680128F4D100BFFFF77FFC00BF94
:1012A00000202949086000BF012289012748FFF773
:1012B0009DFBFFF7CFFB2649264800F019F9264988
:1012C000264800F02BF90DA90DA800F04FFC1821BD
:1012D00007A8FFF7EFF81822214901A8FEF794FFAD
:1012E00001A800F08BFC07A800F012FC00231D4AA7
:1012F0000121184600F0ECF91A4C1BA00068009080
:10130000224669460020FFF76FFE0DE0142219A95E
:10131000002000F021F90A220FA9002000F058F85F
:101320007D204001FFF718FFF0E700004261747470
:101330006C65536869705175616E4B68616E680ABF
:10134000C0A80064020202020001005000400050E8
:10135000411100004D110000CD190000A51300003F
:10136000EC1D000088130000C0A800670B49096845
:101370000968002901D1012100E00021002904D0E1
:101380000021C943064A116006E004490968C9689A
:10139000C868034A416811607047000004000020DB
:1013A00030000020FF20094908620846006801213A
:1013B00008430649086000BF04480068C007C00F22
:1013C0000028F9D101480069C0B27047000003400D
:1013D000F7B582B00446164600200190002500BFF4
:1013E000082C02DD401E05B0F0BD00BF00BFA1000B
:1013F000491CC800FFF77EFC0007000F012802D03F
:101400000420C043EFE700BF00BF002E02D10D2033
:10141000C043E8E700BFA100491CC9000F225202E7
:101420008818FFF767FC8006050CB54200DA2E46E7
:101430003EE02046FFF7A7FE0546A100491CC90073
:10144000032212028818FFF755FC01900198172813
:1014500020D001981C2817D1002D00D029E020466B
:10146000FFF7C8FE0746A100491CC9001F2212024F
:101470008818FFF73FFC800287420BD12046FFF718
:1014800065FD0620C043AEE72046FFF75FFD06205E
:10149000C043A8E70120A04014490988084000285B
:1014A00003D0002D01D100209DE7002D00D000E0E9
:1014B000BFE700BFB54200DA2E4632462046039908
:1014C00000F096FAA100491CC900C81DF93040215E
:1014D000FFF7A4FC00BFA100491CC900C81DF930DA
:1014E000FFF708FC0028F6D130467CE73E000020DC
:1014F000002801D0002906D1054A064B5A61064B47
:10150000044A936102E0034A506191617047000010
:101510000D1B00004C0000200B1B000000BF0B4AFD
:10152000128801235B021A40002AF8D0002801D05B
:10153000002906D1064A054BDA61064B034A1362BD
:1015400002E0024AD0611162704700004C000020A6
:10155000551C0000591C0000F7B50446154600262E
:10156000002700BF082C01DD701EFEBD00BF00BFBC
:10157000A100491CC800FFF7BDFB0007000F0128B0
:1015800002D00420C043F0E700BF00BF002D02D10D
:101590000D20C043E9E700BFA100491CC900032298
:1015A00012028818FFF7A6FB0646172E04D01C2E41
:1015B00002D00620C043D8E70120A0404249098854
:1015C000084000282AD0A100491CC900C81DFF30CE
:1015D000FA30FFF78FFBC606F60E102030400028C9
:1015E00010D0A100491CC900C81DFF30FA301021DD
:1015F000FFF714FC0120A040334909888143324899
:1016000001800BE008203040002805D02046FFF77D
:101610009DFC0C20C043A8E70020A6E7A100491CC0
:10162000C9001F2212028818FFF764FB8006070C0E
:10163000BD4200DD3D4624E02046FFF7DBFD0746C6
:10164000A100491CC900032212028818FFF752FBAF
:101650000646172E07D01C2E05D02046FFF776FC35
:101660000620C04381E70120A040184909880840AE
:10167000002803D0BD4201DD002076E7BD4200DC3A
:1016800000E0D9E700BF2A462046019900F0F3F9AF
:10169000A100491CC900C81DF9302021FFF7BEFB7D
:1016A00000BFA100491CC900C81DF930FFF722FB8B
:1016B0000028F6D10120A0400349098808430249C7
:1016C0000880284651E70000400000203E0000202E
:1016D000F8B504460E4617461D4600BF082C02DD2D
:1016E0000020C043F8BD00BF012E06D0022E10D04E
:1016F000032E10D0042E0FD10CE0042269460F20D7
:101700000002FFF73BFB0098002801D1C01EE9E76B
:1017100000BF00BF00BF02E00420C043E2E700BFFB
:1017200004202840002802D00520C043DAE7002D1D
:1017300022D0012E02D0022E1CD106E0212028400A
:10174000002801D1801FCDE715E020202840002887
:1017500005D080202840002801D1801FC2E710203A
:101760002840002805D080202840002801D1801F73
:10177000B8E700E000BF00BF2046FFF7E7FB2A46BE
:10178000F0231A4032431146A200521CD000FFF74A
:1017900045FB002F0ED12F4807880088401C2D499B
:1017A0000880084600882C49884203D10320800322
:1017B000284908803912A200521CD20001239B0242
:1017C000D018FFF72BFBF9B2A200521CD200012364
:1017D0009B02D218D01DF930FFF720FBA100491C55
:1017E000C900C81DF9300121FFF718FB00BFA10097
:1017F000491CC900C81DF930FFF77CFA0028F6D152
:101800000120A04015490988814314480180E80758
:10181000C00FA040114909880843104908800120E1
:10182000A0400F49098881430D48018000206100D4
:101830000C4A50520C49085500BFA100491CC90070
:10184000032212028818FFF755FA0028F5D060B27B
:1018500048E700003C000020F0FF00003E000020B0
:10186000400000207C0100204200002010B504460A
:1018700010A02168FEF716FD11A06168FEF712FDA9
:1018800012A0A168FEF70EFD13A0E168FEF70AFDA5
:1018900014A02169FEF706FD15A06169FEF702FD9F
:1018A00016A0A169FEF7FEFC17A0E169FEF7FAFC9D
:1018B00010BD0000723020203D20307825780A00CD
:1018C000723120203D20307825780A0072322020A5
:1018D0003D20307825780A00723320203D20307872
:1018E00025780A00723132203D20307825780A00B0
:1018F0006C7220203D20307825780A00706320200B
:101900003D20307825780A00707372203D203078B1
:1019100025780A0001460A694B68886898608B68D8
:10192000486858605068884201D18868506000203B
:1019300008611068401E10601068704742684A6075
:1019400093688B60936859609160086103685B1CC1
:101950000360704718480068002803D00120174929
:10196000086027E00020154908601548016800E07C
:10197000491E14204843134A1058002801D1012061
:1019800000E000200028F3D114224A430D4BD01868
:10199000426852684260024608324368934202D16C
:1019A0004268526842604268D268074B1A60044835
:1019B000016000BF704700003800002024000020B4
:1019C00018000020B4000020000000200749086231
:1019D000096801221143054A116000BF03490968E3
:1019E000C907C90F0029F9D1704700000000034062
:1019F000F7B582B004461646002500200190002E5F
:101A000001D105B0F0BDA100491CC9000522D202D8
:101A10008818FFF76FF90702A100491CC9000522C9
:101A2000D2028918C81DF930FFF764F9381885B259
:101A30002902A000C01CC00008180190324603997A
:101A40000198FFF79BF9A81985B22912A200521C30
:101A5000D2000523DB02D018FFF7E0F9E9B2A200BB
:101A6000521CD2000523DB02D218D01DF930FFF73B
:101A7000D5F900BFC5E7F7B582B004461646002584
:101A800000200190002E01D105B0F0BDA100491C3D
:101A9000C900092292028818FFF72CF90702A10059
:101AA000491CC900092292028918C81DF930FFF7A4
:101AB00021F9381885B22902A000801CC00008183E
:101AC0000190324603990198FFF7EAF9A81985B207
:101AD0002912A200521CD20009239B02D018FFF742
:101AE0009DF9E9B2A200521CD20009239B02D21830
:101AF000D01DF930FFF792F900BFC5E7014608781D
:101B0000704701707047704770477047704700001A
:101B100010B504460622214609200002FFF72EF9DF
:101B2000042221460E319001FFF728F904222146B4
:101B30000A3105200002FFF721F90422A11D0F2020
:101B40000002FFF71BF907480078A07405484178A8
:101B5000E17481782175C178617503480078A075BA
:101B600010BD0000780000207C000020F8B505467C
:101B70000E46002700F071F8002D1DD000BF002494
:101B800009E0285DC01947B2102F02DD0020C043D4
:101B9000F8BD601C44B2082CF3DB00240AE0295D88
:101BA000A200521CD2001F231B02D018FFF736F9E7
:101BB000601C44B2082CF2DB002E1DD0002700244C
:101BC00009E0305DC01947B2102F02DD0020C0438C
:101BD000DEE7601C44B2082CF3DB00240AE0315D30
:101BE000A200521CD2000F235B02D018FFF716F997
:101BF000601C44B2082CF2DB0020C9E710B5044693
:101C00000622214609200002FFF74AF90422214654
:101C10000E319001FFF744F9042221460A310520D4
:101C20000002FFF73DF90422A11D0F200002FFF77B
:101C300037F9A07C05490870E07C4870207D8870E9
:101C4000607DC870A07D0249087010BD780000203A
:101C50007C00002000207047704700B585B0062248
:101C6000694609200002FFF789F8042204A99001BF
:101C7000FFF784F8042203A905200002FFF77EF88D
:101C8000042202A90F200002FFF778F8802100202B
:101C9000FFF7C4F80020FFF72DF806226946092057
:101CA0000002FFF7FDF8042204A99001FFF7F8F8FD
:101CB000042203A905200002FFF7F2F8042202A97A
:101CC0000F200002FFF7ECF805B000BDF8B50020CA
:101CD00000903B480068002864D13A480068451CE1
:101CE00038480560002D0FD137480768374800682D
:101CF000354908603548076035480068401C34495C
:101D00000860FFF733FB00BF3248006885423DD3CF
:101D100000BF2D4800680068002801D1012000E0C4
:101D20000020002804D00020C0432A4908602CE08D
:101D300025480068C068C4686668B54202D2254874
:101D4000066022E0201DFFF7E5FDA06A002803D011
:101D500020461830FFF7DEFD1F49E06A0968884217
:101D600002D91D49E06A08601422E16A51431B4A06
:101D70008818211DFFF7E2FD1949E06A0968C96A60
:101D80008842C6D301200090C3E700BF1448006812
:101D9000C06A1421484311490858012801D901207B
:101DA000009004E00F480068401C0E4908600E488F
:101DB0000068002801D0012000900098F8BD0000C4
:101DC000380000201400002004000020080000203B
:101DD000280000203000002018000020B40000205F
:101DE0000000002020000020240000200008DCABC0
:101DF000CDEFC0A80065FFFFFF00C0A800010000F4
:101E00000000000000000000040000000C000000C2
:101E10002400000000000000040000002C0000006E
:101E20000000000000000000040000002C00000082
:101E30000000000030313233343536373839414212
:101E4000434445464030580030313233343536371C
:101E50003839616263646566403078007C1E00003A
:101E600000000020B400000004010000301F00004A
:101E7000B40000203C05000020010000000000002C
:101E80000000000000000000000000000000000052
:101E90000000000000000000000000000000000042
:101EA0000000000000000000000000000000000032
:101EB000000000000000000000C000000000000062
:101EC00000000000000000000102573535303000EE
:101ED00000000000071B0000091B00000D1B000094
:101EE0000B1B0000FD1A0000031B00000000000097
:101EF00000000000000000000000000000000000E2
:101F00000000000080F0FA023200000080F0FA02C7
:101F1000001BB7000000000080F0FA02102700004C
:101F200000000000000000000000000000805101DF
:0400000500000241B4
:00000001FF
