:020000040000FA
:10000000F80500200902000029020000ED010000AF
:1000100000000000000000000000000000000000E0
:10002000000000000000000000000000A10B000024
:100030000000000000000000AB010000710C000097
:1000400033020000330200003302000033020000DC
:1000500033020000330200003302000033020000CC
:1000600033020000330200003302000033020000BC
:1000700033020000330200003302000033020000AC
:10008000330200003302000033020000330200009C
:10009000330200003302000033020000330200008C
:1000A000330200003302000033020000330200007C
:1000B000330200003302000033020000330200006C
:1000C00000F002F800F046F80CA030C808382418F8
:1000D0002D18A246671EAB4654465D46AC4201D180
:1000E00000F038F87E460F3E0FCCB646012633426C
:1000F00000D0FB1AA246AB46334318472414000035
:1001000044140000103A02D378C878C1FAD85207D4
:1001100001D330C830C101D504680C6070470000BD
:100120000023002400250026103A01D378C1FBD813
:10013000520700D330C100D50B60704710B5782945
:1001400002D100F0A1F810BD002010BD1FB51FBDE9
:1001500010B510BD00F080FA1146FFF7F7FF00F070
:10016000E3FF00F098FA03B4FFF7F2FF03BC00F0DE
:100170009FFA0000084B19680868203080F309884E
:10018000022080F31488BFF36F8F3FBCAE4608BCDB
:1001900004BC62B61847000040000020EFF3108056
:1001A00072B6704780F310887047EFF309800E4BEA
:1001B0001A6820381060F0C044464D4656465F46E7
:1001C000F0C008B572B601F09BF862B60CBC1168BD
:1001D00008681030F0C8A046A946B246BB4680F376
:1001E00009882038F0C818474000002004207146D4
:1001F000084202D0EFF3098001E0EFF30880714676
:10020000004A1047D50900000D480E4901600E490B
:1002100001600E4901600E4A0E4911600021016023
:100220000D4880470D480047FEE7FEE7FEE7FEE782
:10023000FEE7FEE70A480B49094A0B4B70470000EE
:100240000001005059000000160000008800000066
:1002500024000050A55A0000F90C0000C100000065
:10026000F8010020F8050020F80100200FB405492E
:1002700010B503AA029800F0C3F910BC08BC04B082
:10028000184700009800002070B504460D4621462E
:100290001068C046C0462188090502D50F4A7A4435
:1002A00002E00E4A7A440E3223460021243305E050
:1002B00006070009360F965D5E54491C0028F7D1E9
:1002C00020780023000705D5702D03D0002901D028
:1002D00002231132204600F03AF970BD5612000098
:1002E000F3B50446002081B020622046E1688847CB
:1002F00000287AD0252802D06268A16871E0E16800
:1003000020460025884706460020E0610746A06198
:100310002A2E0AD0304600F04DFD002827D0B80024
:100320000019303E0090866119E00298BA00121957
:1003300002C8916102902046E1688847012F064675
:1003400017D1E06900281FDA202085431CE00098BF
:100350000A21806948430099801930388861204615
:10036000E1688847064600F025FD0028EFD1012FFF
:100370000AD02E2E08D12046E16888470646202064
:1003800005437F1C022FC3DBA069002803DA40422B
:10039000A06101200543E80701D010208543002E0D
:1003A00023D030464138192803D80120C002054324
:1003B0002036204625603146029A1546FFF7BEFEDC
:1003C00000280BD0012806D0ED1DE808C000083039
:1003D00002908AE709E02D1D029586E762683046A3
:1003E000A1689047206A401C7EE7206AFEBD00227B
:1003F00003098B422CD3030A8B4211D300239C4662
:100400004EE003460B433CD4002243088B4231D3D9
:1004100003098B421CD3030A8B4201D394463FE06D
:10042000C3098B4201D3CB01C01A524183098B42CD
:1004300001D38B01C01A524143098B4201D34B01B6
:10044000C01A524103098B4201D30B01C01A524119
:10045000C3088B4201D3CB00C01A524183088B42A0
:1004600001D38B00C01A524143088B4201D34B0089
:10047000C01A5241411A00D20146524110467047FB
:100480005DE0CA0F00D04942031000D34042534000
:1004900000229C4603098B422DD3030A8B4212D3C0
:1004A000FC22890112BA030A8B420CD389019211F2
:1004B0008B4208D3890192118B4204D389013AD02F
:1004C000921100E08909C3098B4201D3CB01C01A04
:1004D000524183098B4201D38B01C01A5241430917
:1004E0008B4201D34B01C01A524103098B4201D305
:1004F0000B01C01A5241C3088B4201D3CB00C01A72
:10050000524183088B4201D38B00C01A5241D9D289
:1005100043088B4201D34B00C01A5241411A00D20A
:100520000146634652415B10104601D34042002B06
:1005300000D54942704763465B1000D3404201B585
:100540000020C046C04602BD704770477047FFB5E7
:1005500004460D4681B0243000902168880604D5F9
:100560001022E0699143216000E00120A84201DDF2
:10057000471B00E000270498A1697A191018081A8F
:10058000A0612078C00602D42046C046C04600269E
:1005900008E003986268A168805D9047206A401C6B
:1005A000761C206204988642F3DB2078C0060AD5C8
:1005B0002046C046C04606E06268A16830209047E9
:1005C000206A401C206238467F1E0028F4DC07E0C9
:1005D00000986268A168405D9047206A401C2062D4
:1005E00028466D1E0028F3DC2046C046C046207811
:1005F000000602D5022005B0F0BD0120FBE7000097
:10060000084B70B50D467B4400F013F804462846AD
:1006100000F064FD002802D00020C04370BD2046D9
:1006200070BD0000DB0A000001694A1C0261087805
:10063000704700B58FB002910021059105490193E3
:1006400079440391114604906846FFF749FE0FB0C4
:1006500000BD0000E5FFFFFF754600F025F8AE463F
:10066000050069465346C008C000854618B020B54D
:10067000FFF7E0FD60BC00274908B6460026C0C56C
:10068000C0C5C0C5C0C5C0C5C0C5C0C5C0C5403D4A
:1006900049008D46704710B50446C046C046204606
:1006A000FFF761FD10BD0000004870479401002075
:1006B00001491820ABBEFEE726000200704700008B
:1006C0001FB50C4C1ECC03946C460EC4810F8900E0
:1006D0006A465158084A89184968C306DB0E012248
:1006E0009A401143820F92006B469A58024BD218DF
:1006F00051601FBDA81400000002005002490968A3
:100700000143014A116070470002005010B500F02B
:10071000C1FA0148006810BDA0000020FEB500200D
:1007200002901AA0006800901948046A0013204043
:10073000002801D00020FEBD0120C0042040002878
:1007400001D0144D00E0144D012040042040002849
:1007500001D02846EFE7032080032040800B694644
:100760000A5C0192E005C00D861C1F20400220405B
:10077000400A871C019A7A431146AA087243104620
:10078000FFF735FE800002900298D4E701020204D0
:100790000002005000805101001BB700FEB5002090
:1007A00002901AA0006800901948046A00132040C3
:1007B000002801D00020FEBD0120C00420400028F8
:1007C00001D0144D00E0144D0120400420400028C9
:1007D00001D02846EFE7032080032040800B6946C4
:1007E0000A5C0192E005C00D861C1F2040022040DB
:1007F000400A871C019A7A431146AA0872431046A0
:10080000FFF7F5FD800002900298D4E70102020490
:100810000002005000805101001BB700FEB500200F
:1008200002901AA0006800901948046A0013204042
:10083000002801D00020FEBD0120C0042040002877
:1008400001D0144D00E0144D012040042040002848
:1008500001D02846EFE7032080032040800B694643
:100860000A5C0192E005C00D861C1F20400220405A
:10087000400A871C019A7A431146AA08724310461F
:10088000FFF7B5FD800002900298D4E70102020450
:100890000002005000805101001BB70070B50446F3
:1008A0000D461848C06810210840064615480068E3
:1008B000042108431349086000BF1248C068102192
:1008C00008400028F9D00F480069C008C000C01DCA
:1008D0000C490861084680690009000128438861C5
:1008E00008460069C008C0002043086100F0D2F942
:1008F000002E05D10348006804218843014908609F
:1009000070BD000000020050F7B584B00022002343
:10091000184C2546E0CDE4680297019600950394B3
:100920008403240E002C0ED00403A40FA400124D47
:1009300063198403250E8405E40EA5401C68AC43AE
:10094000069D2C431C600401640F002C10D0840011
:10095000A40FA4006D462C59074D083D62190401EF
:10096000650FC401E40EA5401468AC430C43146049
:1009700007B0F0BD98140000180200500146074A65
:1009800005E01046521E002801DC00207047044894
:10099000C06808408842F4D10120F7E7804F120078
:1009A0000002005070B5034600200FE0012484408F
:1009B0000C40002C09D01C6846000325B540AC4310
:1009C00046001546B5402C431C60401C1028EDD352
:1009D00070BD0000044604A0FFF748FC204600F06C
:1009E0001BFC00BFFEE70000496E204861726420D6
:1009F0004661756C742048616E646C65720A000013
:100A000081680922914381607047000008B506485B
:100A10000823042200210090044800F009F803484C
:100A2000FFF7EEFF08BD000080841E0000000340B9
:100A3000FFB583B004460C9E00270698202801D1FC
:100A4000002006900698C0000499084305990843C1
:100A50002060E06B0121C9070843E063FFF756FE01
:100A600002900498002863D1A060384840691021A2
:100A70000840102801D1029F02E0FFF74FFE074611
:100A8000029886420BD331484069102188431030C8
:100A90002E49486100206060029807B0F0BDBE4258
:100AA00003D3002060603846F7E7002E0AD1E06BE0
:100AB00040004008E0636068000A0002FF306060A8
:100AC000780AEAE70A21794308463146FFF78FFCA6
:100AD000401D0A210190FFF78AFC451EFF2D1DD9FC
:100AE000E06B40004008E06371000A227A43104640
:100AF000FFF77DFC401D0A210190FFF778FC451EA1
:100B0000FF2D00D9FF256068000A000228436060BD
:100B1000681C41003846FFF76AFCBEE76068000ABF
:100B2000000228436060691C3846FFF760FCB4E7A8
:100B30001020A06005484069102188431030034907
:100B40004861002060600298A7E7000000020050A2
:100B5000014609480162006801221043064A1060FC
:100B600000BF05480068C007C00F0028F9D102483F
:100B70000069C0B2704700000000034007490862E6
:100B8000096801221143054A116000BF0349096841
:100B9000C907C90F0029F9D17047000000000340C0
:100BA0007047000010B50120FFF7A8FD0120FFF7F6
:100BB000E5FE00210846FFF771FE002211461948A4
:100BC000FFF7A2FE002210211748FFF79DFE1548EF
:100BD000FFF776FD1448FFF773FD05200007406B13
:100BE000800880000521090748630846406B0321FF
:100BF00008430521090748630846806B0009000186
:100C000088630846806B0F21084305210907886324
:100C1000064800690549086108460069086100F056
:100C200039F810BD103D80570C0040524000005074
:100C300000B50346184600F001F800BD00BF0B499F
:100C400089690122D20511400029F8D107490860BD
:100C50000A280AD100BF054989690122D20511403D
:100C60000029F8D10D21014A1160704700000540AC
:100C700010B5FFF793FA044600F07EFB002803D07E
:100C800001200007024948602046FFF78BFA10BD9B
:100C900000ED00E070B5FFF7C1FD11490860114893
:100CA000006945076D0F022D03D0A8000E490C58AE
:100CB00001E00B4804680B4880690007000F461CE0
:100CC00031462046FFF793FB08490860084907486A
:100CD00000684A108018FFF78AFB0649086070BD5B
:100CE000A800002000020050AC000020A00000205E
:100CF00040420F00A400002070470000F0B587B00C
:100D000004460D46274801460EC9C06803AE0EC60C
:100D100006900020029024484069032109060840FB
:100D2000060E214880690F2109020840070A0020A9
:100D300020630320E060A0681C490840A060012EE9
:100D400004D1FFF72BFDB10003AA5050002D26D08F
:100D5000B10003AA5058791CFFF749FB69084018F5
:100D600029460190FFF743FB801E0290104902982C
:100D700088420FD9B10003AA5058791CFFF737FBFE
:100D8000E900401829460190FFF731FB0009801E59
:100D9000606204E00321090702980843606207B01B
:100DA000F0BD0000C8140000000200500FFFF0FF6B
:100DB000FFFF000030380A2801D2012070470020D0
:100DC0007047014600BF7D22D2004A43104600E032
:100DD000401E0028FCD1704710B5044601204A4946
:100DE0008863FF220021104600F05EF91420FFF70F
:100DF000E8FF0020454908800021082000F02EF976
:100E00000021092000F02AF900210C2000F026F929
:100E100000210D2000F022F9FF210A2000F01EF928
:100E200019210B2000F01AF90021042000F016F916
:100E30001A21052000F012F9FF21062000F00EF91A
:100E40001F21072000F00AF9B021382000F006F930
:100E50003F21282000F002F93021292000F0FEF87F
:100E6000F921302000F0FAF8F721312000F0F6F8EF
:100E70000D21C02000F0F2F80021C12000F0EEF8B2
:100E80003222C221802000F00FF91221C62000F08A
:100E9000E5F80C21C72000F0E1F81221C42000F091
:100EA000DDF8DC21CA2000F0D9F80521CB2000F0C4
:100EB000D5F82178E42000F0D1F86178E52000F041
:100EC000CDF8A178E22000F0C9F8E178E32000F045
:100ED000C5F82179E02000F0C1F86179E12000F047
:100EE000BDF8FF210131102000F055F81F2000F05F
:100EF00099F8C0221B21802000F0D6F804221F217F
:100F0000802000F0D1F810BD004200507E0000208B
:100F100030B504460D4610E01C2000F057F80221C1
:100F20000840002809D080221F21104600F0BCF89C
:100F300080221F21A02000F0B7F81F21002000F020
:100F40004FF8082108400028E6D10021022000F0D7
:100F500085F81A21032000F081F80D2040022018A6
:100F6000C1B2062000F07AF80D20400220180004DB
:100F7000010E072000F072F8002211467A2000F0DE
:100F800093F82946204600F075F808221F2180209A
:100F900000F08AF830BD30B505460C462946D4200D
:100FA00000F05CF8E1B2D62000F058F82112D7200A
:100FB00000F054F802E00120FFF703FFEA2000F000
:100FC00005F8C007C00F0028F5D130BD10B50446A4
:100FD000204600F027F82146002000F001F810BD5F
:100FE00030B504460B46002500200D498863D8061D
:100FF000C00E204305462846FFF7C0FD0020FFF73E
:10100000A7FD054680201840002803D00020FFF7E8
:101010009FFD0546012002498863284630BD000037
:101020000042005010B50446602020400A4909786B
:1010300088420FD003221F21A02000F035F8602045
:10104000204042111F21802000F02EF86020204017
:101050000149087010BD00007C00002030B5044636
:101060000D462046FFF7DEFF2A462146402000F0CD
:101070001BF830BD10B504460B46002009498863B3
:101080007A20FFF77BFD03E018785B1CFFF776FD05
:101090002046611E8CB20028F6D1012001498863E8
:1010A00010BD00000042005070B503460C461546C6
:1010B0000026002008498863E006C00E1843064653
:1010C0003046FFF75BFD2E463046FFF757FD012007
:1010D0000149886370BD00000042005001460020B5
:1010E000C043704730B504460D462046FFF7A0FDCB
:1010F000204630BD10B50246002004E00B5C084CD1
:101100002354431CD8B20428F8DB002004E0135C0D
:10111000044C2354431CD8B20628F8DB10BD000051
:10112000870000208100002000BF06E059202249EE
:10113000086016200860882008601F4800680128A1
:10114000F4D100BFFFF72EFD00BF00201A49086050
:1011500000BFE12149021948FFF7D0FDFFF756FC17
:10116000012251031648FFF71DFC01229103144888
:101170004038FFF717FC1348FFF72EFE1248FFF721
:1011800020FE12491420FFF706FF0F48FFF719FE53
:101190000F490C48FFF7AEFF0CE00E48406B0121F1
:1011A00048400C4948630C492A20FFF7B1FE0B4820
:1011B000FFF707FEF1E700000001005000000540C6
:1011C0004040005000000020DC05000076040000D4
:1011D0000600002040420050140000208813000048
:1011E0000B4909680968002901D1012100E00021AB
:1011F000002904D00021C943064A116006E00449D1
:101200000968C968C868034A4168116070470000EE
:10121000440000207000002010B5044610A0216892
:10122000FFF724F811A06168FFF720F812A0A16869
:10123000FFF71CF813A0E168FFF718F814A0216964
:10124000FFF714F815A06169FFF710F816A0A1695F
:10125000FFF70CF817A0E169FFF708F810BD0000D0
:10126000723020203D20307825780A00723120200D
:101270003D20307825780A00723220203D203078D9
:1012800025780A00723320203D20307825780A0026
:10129000723132203D20307825780A006C7220208F
:1012A0003D20307825780A00706320203D2030787A
:1012B00025780A00707372203D20307825780A0066
:1012C00001460A694B68886898608B68486858606E
:1012D0005068884201D18868506000200861106819
:1012E000401E10601068704742684A6093688B60C7
:1012F000936859609160086103685B1C03607047E4
:1013000018480068002803D001201749086027E02A
:101310000020154908601548016800E0491E1420A6
:101320004843134A1058002801D1012000E0002052
:101330000028F3D114224A430D4BD018426852685A
:101340004260024608324368934202D142685268C2
:1013500042604268D268074B1A600448016000BFCF
:101360007047000078000020640000205800002032
:10137000CC00002040000020F8B5002000903B4841
:101380000068002864D13A480068451C3848056068
:10139000002D0FD137480768374800683549086085
:1013A0003548076035480068401C34490860FFF73D
:1013B00017FF00BF3248006885423DD300BF2D486B
:1013C00000680068002801D1012000E0002000280A
:1013D00004D00020C0432A4908602CE0254800685A
:1013E000C068C4686668B54202D22548066022E03B
:1013F000201DFFF765FFA06A002803D020461830A3
:10140000FFF75EFF1F49E06A0968884202D91D495B
:10141000E06A08601422E16A51431B4A8818211DC2
:10142000FFF762FF1949E06A0968C96A8842C6D3B2
:1014300001200090C3E700BF14480068C06A14216F
:10144000484311490858012801D90120009004E0BF
:101450000F480068401C0E4908600E4800680028CC
:1014600001D0012000900098F8BD00007800002015
:1014700054000020440000204800002068000020A4
:101480007000002058000020CC0000204000002008
:101490006000002064000020000000000400000044
:1014A0000C00000024000000000000000400000008
:1014B0002C000000000000000000000004000000FC
:1014C0002C00000000000000001BB700000000001E
:1014D0000000000000805101001BB7000000000068
:1014E0000000000000805101001BB7000000000058
:1014F000000000000080510130313233343536377E
:101500003839414243444546403058003031323347
:101510003435363738396162636465664030780047
:101520004015000000000020CC0000000401000075
:101530000C160000CC0000202C050000200100004B
:10154000001B777148F0C0A8017D1C659D5897F37A
:10155000C0A80174FFFFFFFFFFFF7469692D3036DB
:10156000080600010800060400017469692D303680
:10157000C0A80177000000000000C0A80101000021
:10158000000000000000000000000000000000005B
:10159000000000000000000000000000000000004B
:1015A000000000000000000000000000000000003B
:1015B000000000000000000000000000000000002B
:1015C00050000000000000000000000000000000CB
:1015D000000000000A0200000000000000000000FF
:1015E00080F0FA023200000080F0FA02001BB7001F
:1015F0000000000080F0FA02102700000000000048
:0C1600000000000000000000008051010C
:0400000500000209EC
:00000001FF
