:020000040000FA
:10000000A80500200902000029020000ED010000FF
:1000100000000000000000000000000000000000E0
:10002000000000000000000000000000F90B0000CC
:100030000000000000000000AB010000C90C00003F
:1000400033020000330200003302000033020000DC
:1000500033020000330200003302000033020000CC
:1000600033020000330200003302000033020000BC
:1000700033020000330200003302000033020000AC
:10008000330200003302000033020000330200009C
:10009000330200003302000033020000330200008C
:1000A000330200003302000033020000330200007C
:1000B000330200003302000033020000330200006C
:1000C00000F002F800F046F80CA030C808382418F8
:1000D0002D18A246671EAB4654465D46AC4201D180
:1000E00000F038F87E460F3E0FCCB646012633426C
:1000F00000D0FB1AA246AB4633431847C01100009C
:10010000E0110000103A02D378C878C1FAD852073B
:1001100001D330C830C101D504680C6070470000BD
:100120000023002400250026103A01D378C1FBD813
:10013000520700D330C100D50B60704710B5782945
:1001400002D100F0A1F810BD002010BD1FB51FBDE9
:1001500010B510BD00F080FA1146FFF7F7FF00F070
:1001600069FE00F098FA03B4FFF7F2FF03BC00F059
:100170009FFA0000084B19680868203080F309884E
:10018000022080F31488BFF36F8F3FBCAE4608BCDB
:1001900004BC62B61847000010000020EFF3108086
:1001A00072B6704780F310887047EFF309800E4BEA
:1001B0001A6820381060F0C044464D4656465F46E7
:1001C000F0C008B572B600F069FF62B60CBC1168E9
:1001D00008681030F0C8A046A946B246BB4680F376
:1001E00009882038F0C81847100000200420714604
:1001F000084202D0EFF3098001E0EFF30880714676
:10020000004A1047490A00000D480E4901600E4996
:1002100001600E4901600E4A0E4911600021016023
:100220000D4880470D480047FEE7FEE7FEE7FEE782
:10023000FEE7FEE70A480B49094A0B4B70470000EE
:100240000001005059000000160000008800000066
:1002500024000050A55A0000510D0000C10000000C
:10026000A8010020A8050020A80100200FB405491E
:1002700010B503AA029800F0C3F910BC08BC04B082
:10028000184700004C00002070B504460D4621467A
:100290001068C046C0462188090502D50F4A7A4435
:1002A00002E00E4A7A440E3223460021243305E050
:1002B00006070009360F965D5E54491C0028F7D1E9
:1002C00020780023000705D5702D03D0002901D028
:1002D00002231132204600F03AF970BDF20F0000FF
:1002E000F3B50446002081B020622046E1688847CB
:1002F00000287AD0252802D06268A16871E0E16800
:1003000020460025884706460020E0610746A06198
:100310002A2E0AD0304600F079FD002827D0B800F8
:100320000019303E0090866119E00298BA00121957
:1003300002C8916102902046E1688847012F064675
:1003400017D1E06900281FDA202085431CE00098BF
:100350000A21806948430099801930388861204615
:10036000E1688847064600F051FD0028EFD1012FD3
:100370000AD02E2E08D12046E16888470646202064
:1003800005437F1C022FC3DBA069002803DA40422B
:10039000A06101200543E80701D010208543002E0D
:1003A00023D030464138192803D80120C002054324
:1003B0002036204625603146029A1546FFF7BEFEDC
:1003C00000280BD0012806D0ED1DE808C000083039
:1003D00002908AE709E02D1D029586E762683046A3
:1003E000A1689047206A401C7EE7206AFEBD00227B
:1003F00003098B422CD3030A8B4211D300239C4662
:100400004EE003460B433CD4002243088B4231D3D9
:1004100003098B421CD3030A8B4201D394463FE06D
:10042000C3098B4201D3CB01C01A524183098B42CD
:1004300001D38B01C01A524143098B4201D34B01B6
:10044000C01A524103098B4201D30B01C01A524119
:10045000C3088B4201D3CB00C01A524183088B42A0
:1004600001D38B00C01A524143088B4201D34B0089
:10047000C01A5241411A00D20146524110467047FB
:100480005DE0CA0F00D04942031000D34042534000
:1004900000229C4603098B422DD3030A8B4212D3C0
:1004A000FC22890112BA030A8B420CD389019211F2
:1004B0008B4208D3890192118B4204D389013AD02F
:1004C000921100E08909C3098B4201D3CB01C01A04
:1004D000524183098B4201D38B01C01A5241430917
:1004E0008B4201D34B01C01A524103098B4201D305
:1004F0000B01C01A5241C3088B4201D3CB00C01A72
:10050000524183088B4201D38B00C01A5241D9D289
:1005100043088B4201D34B00C01A5241411A00D20A
:100520000146634652415B10104601D34042002B06
:1005300000D54942704763465B1000D3404201B585
:100540000020C046C04602BD704770477047FFB5E7
:1005500004460D4681B0243000902168880604D5F9
:100560001022E0699143216000E00120A84201DDF2
:10057000471B00E000270498A1697A191018081A8F
:10058000A0612078C00602D42046C046C04600269E
:1005900008E003986268A168805D9047206A401C6B
:1005A000761C206204988642F3DB2078C0060AD5C8
:1005B0002046C046C04606E06268A16830209047E9
:1005C000206A401C206238467F1E0028F4DC07E0C9
:1005D00000986268A168405D9047206A401C2062D4
:1005E00028466D1E0028F3DC2046C046C046207811
:1005F000000602D5022005B0F0BD0120FBE7000097
:10060000084B70B50D467B4400F013F804462846AD
:1006100000F003FC002802D00020C04370BD20463B
:1006200070BD00001908000001694A1C02610878C9
:10063000704700B58FB002910021059105490193E3
:1006400079440391114604906846FFF749FE0FB0C4
:1006500000BD0000E5FFFFFF754600F025F8AE463F
:10066000050069465346C008C000854618B020B54D
:10067000FFF7E0FD60BC00274908B6460026C0C56C
:10068000C0C5C0C5C0C5C0C5C0C5C0C5C0C5403D4A
:1006900049008D46704710B50446C046C046204606
:1006A000FFF761FD10BD00000048704748010020C1
:1006B00001491820ABBEFEE726000200704700008B
:1006C0001FB50C4C1ECC03946C460EC4810F8900E0
:1006D0006A465158084A89184968C306DB0E012248
:1006E0009A401143820F92006B469A58024BD218DF
:1006F00051601FBD44120000000200500249096809
:100700000143014A116070470002005010B500F02B
:10071000EDFA0148006810BD54000020FEB500202D
:1007200002901AA0006800901948046A0013204043
:10073000002801D00020FEBD0120C0042040002878
:1007400001D0144D00E0144D012040042040002849
:1007500001D02846EFE7032080032040800B694644
:100760000A5C0192E005C00D861C1F20400220405B
:10077000400A871C019A7A431146AA087243104620
:10078000FFF735FE800002900298D4E701020204D0
:100790000002005000805101001BB700FEB5002090
:1007A00002901AA0006800901948046A00132040C3
:1007B000002801D00020FEBD0120C00420400028F8
:1007C00001D0144D00E0144D0120400420400028C9
:1007D00001D02846EFE7032080032040800B6946C4
:1007E0000A5C0192E005C00D861C1F2040022040DB
:1007F000400A871C019A7A431146AA0872431046A0
:10080000FFF7F5FD800002900298D4E70102020490
:100810000002005000805101001BB700FEB500200F
:1008200002901AA0006800901948046A0013204042
:10083000002801D00020FEBD0120C0042040002877
:1008400001D0144D00E0144D012040042040002848
:1008500001D02846EFE7032080032040800B694643
:100860000A5C0192E005C00D861C1F20400220405A
:10087000400A871C019A7A431146AA08724310461F
:10088000FFF7B5FD800002900298D4E70102020450
:100890000002005000805101001BB70070B50446F3
:1008A0000D461848C06810210840064615480068E3
:1008B000042108431349086000BF1248C068102192
:1008C00008400028F9D00F480069C008C000C01DCA
:1008D0000C490861084680690009000128438861C5
:1008E00008460069C008C0002043086100F0FEF916
:1008F000002E05D10348006804218843014908609F
:1009000070BD000000020050F7B584B00022002343
:10091000184C2546E0CDE4680297019600950394B3
:100920008403240E002C0ED00403A40FA400124D47
:1009300063198403250E8405E40EA5401C68AC43AE
:10094000069D2C431C600401640F002C10D0840011
:10095000A40FA4006D462C59074D083D62190401EF
:10096000650FC401E40EA5401468AC430C43146049
:1009700007B0F0BD34120000180200500146074ACB
:1009800005E01046521E002801DC00207047044894
:10099000C06808408842F4D10120F7E7804F120078
:1009A0000002005002460D480068802318430B4B9C
:1009B00018605001084300021862184600680123BD
:1009C0001843064B186000BF04480068C007C00FFA
:1009D0000028F9D101480069C0B270470000034007
:1009E00010B50C4B1B68802423430A4C2360430141
:1009F0000B431B021343236223461B68012423433A
:100A0000044C236000BF034B1B68DB07DB0F002B8C
:100A1000F9D110BD0000034070B5034600200FE07F
:100A2000012484400C40002C09D01C68460003259A
:100A3000B540AC4346001546B5402C431C60401CF5
:100A40001028EDD370BD0000044604A0FFF70EFC93
:100A5000204600F0AFFA00BFFEE70000496E2048D4
:100A6000617264204661756C742048616E646C65C7
:100A7000720A000005210907C96801221203114307
:100A800005221207D1601146C96801221203914361
:100A900005221207D160704730B583680D24A34347
:100AA0000C46144308252C432343836030BD0000CB
:100AB00008B507481023042200210090054800F0E3
:100AC0000BF8002201210348FFF7E6FF08BD0000F4
:100AD00080841E0000000340FFB583B004460C9ED6
:100AE00000270698202801D1002006900698C00013
:100AF00004990843059908432060E06B0121C90768
:100B00000843E063FFF702FE02900498002863D1D7
:100B1000A0603848406910210840102801D1029F88
:100B200002E0FFF7FBFD0746029886420BD33148EF
:100B300040691021884310302E49486100206060D0
:100B4000029807B0F0BDBE4203D300206060384673
:100B5000F7E7002E0AD1E06B40004008E0636068D0
:100B6000000A0002FF306060780AEAE70A21794350
:100B700008463146FFF73BFC401D0A210190FFF774
:100B800036FC451EFF2D1DD9E06B40004008E06398
:100B900071000A227A431046FFF729FC401D0A2102
:100BA0000190FFF724FC451EFF2D00D9FF2560684A
:100BB000000A000228436060681C41003846FFF7C5
:100BC00016FCBEE76068000A000228436060691CEA
:100BD0003846FFF70CFCB4E71020A06005484069D8
:100BE000102188431030034948610020606002985A
:100BF000A7E70000000200507047000010B5012078
:100C0000FFF77CFD0120FFF7B9FE00210846FFF742
:100C100045FE002211461948FFF776FE00221021FA
:100C20001748FFF771FE1548FFF74AFD1448FFF714
:100C300047FD05200007406B80088000052109075B
:100C400048630846406B03210843052109074863B0
:100C50000846806B0009000188630846806B0F21FD
:100C600008430521090788630648006905490861AA
:100C700008460069086100F039F810BD103D805742
:100C80000C0040524000005000B50346184600F0EA
:100C900001F800BD00BF0B4989690122D20511404E
:100CA0000029F8D1074908600A280AD100BF054980
:100CB00089690122D20511400029F8D10D21014A8C
:100CC000116070470000054010B5FFF767FA044651
:100CD00000F020FA002803D00120000702494860F4
:100CE0002046FFF75FFA10BD00ED00E070B5FFF79A
:100CF00095FD114908601148006945076D0F022DE7
:100D000003D0A8000E490C5801E00B4804680B48BA
:100D100080690007000F461C31462046FFF767FB3D
:100D2000084908600849074800684A108018FFF71A
:100D30005EFB0649086070BD5C00002000020050A8
:100D4000600000205400002040420F0058000020A6
:100D500070470000F0B587B004460D4627480146AD
:100D60000EC9C06803AE0EC606900020029024484B
:100D70004069032109060840060E214880690F21B9
:100D800009020840070A002020630320E060A068F1
:100D90001C490840A060012E04D1FFF7FFFCB10000
:100DA00003AA5050002D26D0B10003AA5058791C38
:100DB000FFF71DFB6908401829460190FFF717FB54
:100DC000801E02901049029888420FD9B10003AAF0
:100DD0005058791CFFF70BFBE90040182946019099
:100DE000FFF705FB0009801E606204E0032109078C
:100DF00002980843606207B0F0BD00006412000072
:100E0000000200500FFFF0FFFFFF000030380A28FB
:100E100001D2012070470020704701460020C043E6
:100E2000704730B504460D462046FFF72DFF20469B
:100E300030BD000000BF06E059204B490860162075
:100E4000086088200860484800680128F4D100BF85
:100E5000FFF7D4FE012291034448FFF7DDFD00BFF8
:100E600000204149086000BFE12149024048FFF7E6
:100E700071FFFFF71DFEFF2200211046FFF7B0FDB6
:100E800000BF1D210020FFF78DFD002801D10120AA
:100E900000E00020C007C00F0028F2D103221F216C
:100EA0000520FFF79DFD02221F210420FFF798FD7A
:100EB0000F2240210220FFF793FD3222422104201D
:100EC000FFF78EFD03221F210520FFF789FD032276
:100ED0001F210420FFF784FD362204210220FFF7A2
:100EE0007FFD302205210220FFF77AFD2D2202210D
:100EF0000846FFF775FD692203210220FFF770FD08
:100F0000692200210220FFF76BFD742201210220DB
:100F1000FFF766FD04210020FFF744FD1549086036
:100F200005210020FFF73EFD124908600221002044
:100F3000FFF738FD0F49086003210020FFF732FD5D
:100F40000C49086000210846FFF72CFD094908609C
:100F500001210020FFF726FD064908600648FFF73B
:100F600089FD00BFFEE70000000100500040005076
:100F70000000054008000020000003400B490968FC
:100F80000968002901D1012100E00021002904D0D5
:100F90000021C943064A116006E004490968C9688E
:100FA000C868034A416811607047000014000020BF
:100FB0004000002010B5044610A02168FFF756F944
:100FC00011A06168FFF752F912A0A168FFF74EF96E
:100FD00013A0E168FFF74AF914A02169FFF746F969
:100FE00015A06169FFF742F916A0A169FFF73EF964
:100FF00017A0E169FFF73AF910BD00007230202018
:101000003D20307825780A00723120203D2030784C
:1010100025780A00723220203D20307825780A0099
:10102000723320203D20307825780A00723132203A
:101030003D20307825780A006C7220203D203078E1
:1010400025780A00706320203D20307825780A003A
:10105000707372203D20307825780A0001460A69B5
:101060004B68886898608B68486858605068884208
:1010700001D188685060002008611068401E10602F
:101080001068704742684A6093688B609368596043
:101090009160086103685B1C036070471848006832
:1010A000002803D001201749086027E000201549D7
:1010B00008601548016800E0491E14204843134A9F
:1010C0001058002801D1012000E000200028F3D1B1
:1010D00014224A430D4BD0184268526842600246BF
:1010E00008324368934202D14268526842604268C3
:1010F000D268074B1A600448016000BF70470000C7
:10110000480000203400002028000020800000203B
:1011100010000020F8B5002000903B48006800282F
:1011200064D13A480068451C38480560002D0FD14D
:101130003748076837480068354908603548076010
:1011400035480068401C34490860FFF717FF00BFAE
:101150003248006885423DD300BF2D4800680068D2
:10116000002801D1012000E00020002804D0002048
:10117000C0432A4908602CE025480068C068C4685C
:101180006668B54202D22548066022E0201DFFF7BE
:1011900065FFA06A002803D020461830FFF75EFFE5
:1011A0001F49E06A0968884202D91D49E06A08605F
:1011B0001422E16A51431B4A8818211DFFF762FF80
:1011C0001949E06A0968C96A8842C6D301200090BB
:1011D000C3E700BF14480068C06A1421484311499E
:1011E0000858012801D90120009004E00F48006848
:1011F000401C0E4908600E480068002801D00120FC
:1012000000900098F8BD0000480000202400002055
:1012100014000020180000203800002040000020AA
:101220002800002080000020100000203000002056
:101230003400002000000000040000000C0000004A
:101240002400000000000000040000002C0000004A
:101250000000000000000000040000002C0000005E
:1012600000000000001BB7000000000000000000AC
:1012700000805101001BB7000000000000000000CA
:1012800000805101001BB7000000000000000000BA
:1012900000805101303132333435363738394142EC
:1012A00043444546403058003031323334353637C8
:1012B000383961626364656640307800DC12000092
:1012C0000000002080000000040100005C1300000A
:1012D0008000002028050000200100000000000020
:1012E00000000000000000000000000000000000FE
:1012F00000000000000000000000000000000000EE
:1013000000000000000000000000000000000000DD
:1013100000000000000000000000000000000000CD
:1013200000000000000000000000000000000000BD
:1013300080F0FA023200000080F0FA02001BB700D1
:101340000000000080F0FA021027000000000000FA
:0C135000000000000000000000805101BF
:0400000500000209EC
:00000001FF
