:020000040000FA
:10000000700500200902000029020000ED01000037
:1000100000000000000000000000000000000000E0
:10002000000000000000000000000000E5050000E6
:100030000000000000000000AB01000029060000E5
:1000400033020000330200003302000033020000DC
:1000500033020000330200003302000033020000CC
:1000600033020000330200003302000033020000BC
:1000700033020000330200003302000033020000AC
:10008000330200003302000033020000330200009C
:10009000330200003302000033020000330200008C
:1000A000330200003302000033020000330200007C
:1000B000330200003302000033020000330200006C
:1000C00000F002F800F046F80CA030C808382418F8
:1000D0002D18A246671EAB4654465D46AC4201D180
:1000E00000F038F87E460F3E0FCCB646012633426C
:1000F00000D0FB1AA246AB46334318475C08000009
:100100007C080000103A02D378C878C1FAD85207A8
:1001100001D330C830C101D504680C6070470000BD
:100120000023002400250026103A01D378C1FBD813
:10013000520700D330C100D50B60704710B5782945
:1001400002D100F0A1F810BD002010BD1FB51FBDE9
:1001500010B510BD00F0FCF91146FFF7F7FF00F0F5
:1001600089FA00F014FA03B4FFF7F2FF03BC00F0C1
:100170001BFA0000084B19680868203080F30988D2
:10018000022080F31488BFF36F8F3FBCAE4608BCDB
:1001900004BC62B61847000000000020EFF3108096
:1001A00072B6704780F310887047EFF309800E4BEA
:1001B0001A6820381060F0C044464D4656465F46E7
:1001C000F0C008B572B600F0E7FA62B60CBC116870
:1001D00008681030F0C8A046A946B246BB4680F376
:1001E00009882038F0C81847000000200420714614
:1001F000084202D0EFF3098001E0EFF30880714676
:10020000004A1047B90500000D480E4901600E492B
:1002100001600E4901600E4A0E4911600021016023
:100220000D4880470D480047FEE7FEE7FEE7FEE782
:10023000FEE7FEE70A480B49094A0B4B70470000EE
:100240000001005059000000160000008800000066
:1002500024000050A55A00004D060000C100000017
:100260007001002070050020700100200FB40549C6
:1002700010B503AA029800F03FF910BC08BC04B006
:10028000184700003C00002070B504460D4621468A
:100290001068C046C0462188090502D50F4A7A4435
:1002A00002E00E4A7A440E3223460021243305E050
:1002B00006070009360F965D5E54491C0028F7D1E9
:1002C00020780023000705D5702D03D0002901D028
:1002D00002231132204600F0B6F870BD8E060000F1
:1002E000F3B50446002081B020622046E1688847CB
:1002F000002872D0252802D06268A1689AE0E168DF
:1003000020460026884705460020E0610746A06198
:100310002A2D0AD0284600F09AF9002827D0B800E4
:100320000019303D0090856119E00298BA00121959
:1003300002C8916102902046E1688847012F054676
:1003400017D1E06900281FDA202086431CE00098BE
:100350000A21806948430099401930388861204655
:10036000E1688847054600F072F90028EFD1012FB7
:100370000AD02E2D08D12046E16888470546202066
:1003800006437F1C022FC3DBA069002803DA40422A
:10039000A06101200643F00701D0102086436C2D98
:1003A0000AD0682D08D04C2D3CD06A2D38D0742D41
:1003B00038D07A2D36D016E0E1682F46204688479F
:1003C000B84205460AD16C2F2AD001208002E1688C
:1003D000064320468847054605E02FE06C2F1DD0D8
:1003E000FF2001300643002D28D028464138192827
:1003F00003D80120C0020643203520462660294646
:10040000029A1646FFF79AFE002810D001280BD05A
:10041000F61DF008C0000830029066E74020E1E7D2
:100420008020D4E70020D2E7361D02965DE762689F
:100430002846A1689047206A401C55E7206AFEBD07
:10044000704770477047FFB504460D4681B02430B1
:1004500000902168880604D51022E069914321604C
:1004600000E00120A84201DD471B00E000270498BE
:10047000A1697A191018081AA0612078C00602D460
:100480002046C046C046002608E003986268A1687E
:10049000805D9047206A401C761C2062049886424A
:1004A000F3DB2078C0060AD52046C046C04606E0E9
:1004B0006268A16830209047206A401C206238465C
:1004C0007F1E0028F4DC07E000986268A168405DA8
:1004D0009047206A401C206228466D1E0028F3DCED
:1004E0002046C046C0462078000602D5022005B04E
:1004F000F0BD0120FBE70000084B70B50D467B44C2
:1005000000F013F80446284600F0A8F8002802D0AE
:100510000020C04370BD204670BD00006301000094
:1005200001694A1C02610878704700B58FB00291DA
:1005300000210591054901937944039111460490E6
:100540006846FFF7CDFE0FB000BD0000E5FFFFFFDE
:10055000754600F025F8AE46050069465346C008CA
:10056000C000854618B020B5FFF764FE60BC0027C8
:100570004908B6460026C0C5C0C5C0C5C0C5C0C56F
:10058000C0C5C0C5C0C5403D49008D46704710B5C7
:100590000446C046C0462046FFF7E5FD10BD0000FA
:1005A000004870470C01002001491820ABBEFEE74F
:1005B0002600020070470000044604A0FFF756FE24
:1005C000204600F075F800BFFEE70000496E2048A5
:1005D000617264204661756C742048616E646C655C
:1005E000720A0000704700B50346184600F002F892
:1005F00000BD000000BF0B4989690122D2051140EE
:100600000029F8D1074908600A280AD100BF054926
:1006100089690122D20511400029F8D10D21014A32
:10062000116070470000054010B5FFF7B7FD0446A4
:1006300000F0EEF8002803D00120000702494860CE
:100640002046FFF7AFFD10BD00ED00E070473038E9
:100650000A2801D20120704700207047014600207F
:10066000C043704730B504460D462046FFF7BBFF38
:10067000204630BD704700000B4909680968002911
:1006800001D1012100E00021002904D00021C9434B
:10069000064A116006E004490968C968C868034A47
:1006A0004168116070470000040000203000002005
:1006B00010B5044610A02168FFF7D8FD11A06168AD
:1006C000FFF7D4FD12A0A168FFF7D0FD13A0E168E9
:1006D000FFF7CCFD14A02169FFF7C8FD15A06169E3
:1006E000FFF7C4FD16A0A169FFF7C0FD17A0E169DF
:1006F000FFF7BCFD10BD0000723020203D20307897
:1007000025780A00723120203D20307825780A00B3
:10071000723220203D20307825780A007233202064
:100720003D20307825780A00723132203D20307823
:1007300025780A006C7220203D20307825780A0048
:10074000706320203D20307825780A007073722075
:100750003D20307825780A0001460A694B68886890
:1007600098608B68486858605068884201D18868F2
:100770005060002008611068401E106010687047CB
:1007800042684A6093688B60936859609160086121
:1007900003685B1C0360704718480068002803D09A
:1007A00001201749086027E0002015490860154816
:1007B000016800E0491E14204843134A10580028DD
:1007C00001D1012000E000200028F3D114224A4387
:1007D0000D4BD018426852684260024608324368A6
:1007E000934202D14268526842604268D268074B25
:1007F0001A600448016000BF704700003800002004
:1008000024000020180000204400002000000020E8
:10081000F8B5002000903B480068002864D13A48B1
:100820000068451C38480560002D0FD1374807681F
:100830003748006835490860354807603548006822
:10084000401C34490860FFF717FF00BF32480068BA
:1008500085423DD300BF2D4800680068002801D1C3
:10086000012000E00020002804D00020C0432A49D5
:1008700008602CE025480068C068C4686668B54216
:1008800002D22548066022E0201DFFF765FFA06A1E
:10089000002803D020461830FFF75EFF1F49E06AAA
:1008A0000968884202D91D49E06A08601422E16A99
:1008B00051431B4A8818211DFFF762FF1949E06A5E
:1008C0000968C96A8842C6D301200090C3E700BF07
:1008D00014480068C06A1421484311490858012887
:1008E00001D90120009004E00F480068401C0E4927
:1008F00008600E480068002801D001200090009890
:10090000F8BD000038000020140000200400002082
:1009100008000020280000203000002018000020DF
:1009200044000020000000202000002024000020BF
:100930003031323334353637383941424344454615
:10094000403058003031323334353637383961620F
:10095000636465664030780078090000000000207C
:100960004400000004010000BC0900004400002015
:100970002C05000020010000000000000000000025
:100980000000000000000000000000000000000067
:100990000000000000000000000000000000000057
:1009A0000000000000000000000000000000000047
:0C09B0000000000000000000000000003B
:0400000500000209EC
:00000001FF
