:020000040000FA
:10000000D80500204102000061020000ED0100005F
:1000100000000000000000000000000000000000E0
:10002000000000000000000000000000A90D00001A
:100030000000000000000000AB010000790E00008D
:100040006B0200006B0200006B0200006B020000FC
:100050006B0200006B0200006B0200006B020000EC
:100060006B0200006B0200006B0200006B020000DC
:100070006B0200006B0200006B0200006B020000CC
:100080006B0200006B0200006B0200006B020000BC
:100090006B0200006B0200006B0200006B020000AC
:1000A0006B0200006B0200006B0200006B0200009C
:1000B0006B0200006B0200006B0200006B0200008C
:1000C00000F002F800F046F80CA030C808382418F8
:1000D0002D18A246671EAB4654465D46AC4201D180
:1000E00000F038F87E460F3E0FCCB646012633426C
:1000F00000D0FB1AA246AB46334318473015000028
:1001000050150000103A02D378C878C1FAD85207C7
:1001100001D330C830C101D504680C6070470000BD
:100120000023002400250026103A01D378C1FBD813
:10013000520700D330C100D50B60704710B5782945
:1001400002D100F0BDF810BD002010BD1FB51FBDCD
:1001500010B510BD00F09CFA1146FFF7F7FF00F054
:1001600047FF00F0B4FA03B4FFF7F2FF03BC00F05E
:10017000BBFA0000084B19680868203080F3098832
:10018000022080F31488BFF36F8F3FBCAE4608BCDB
:1001900004BC62B6184700003C000020EFF310805A
:1001A00072B6704780F310887047EFF309800E4BEA
:1001B0001A6820381060F0C044464D4656465F46E7
:1001C000F0C008B572B601F021F962B60CBC116836
:1001D00008681030F0C8A046A946B246BB4680F376
:1001E00009882038F0C818473C00002004207146D8
:1001F000084202D0EFF3098001E0EFF30880714676
:10020000004A10472D0C000070B505460C461646F6
:1002100002E00FCC0FC5103E102EFAD2082E02D3EA
:1002200003CC03C5083E042E07D301CC01C5361FFD
:1002300003E021782970641C6D1C761EF9D270BD14
:100240000D480E4901600E4901600E4901600E4AD9
:100250000E491160002101600D4880470D4800479C
:10026000FEE7FEE7FEE7FEE7FEE7FEE70A480B498A
:10027000094A0B4B70470000000100505900000074
:10028000160000008800000024000050A55A00005D
:10029000010F0000C1000000D8010020D805002097
:1002A000D80100200FB4054910B503AA029800F048
:1002B000C3F910BC08BC04B0184700007800002047
:1002C00070B504460D4621461068C046C0462188D8
:1002D000090502D50F4A7A4402E00E4A7A440E32EA
:1002E00023460021243305E006070009360F965DFA
:1002F0005E54491C0028F7D120780023000705D55B
:10030000702D03D0002901D002231132204600F0C5
:100310003AF970BD2A130000F3B50446002081B0FD
:1003200020622046E168884700287AD0252802D03C
:100330006268A16871E0E1682046002588470646AA
:100340000020E0610746A0612A2E0AD0304600F066
:1003500035FE002827D0B8000019303E0090866195
:1003600019E00298BA00121902C891610290204661
:10037000E1688847012F064617D1E06900281FDA97
:10038000202085431CE000980A2180694843009999
:100390008019303888612046E1688847064600F0B9
:1003A0000DFE0028EFD1012F0AD02E2E08D12046B5
:1003B000E16888470646202005437F1C022FC3DBE7
:1003C000A069002803DA4042A06101200543E80744
:1003D00001D010208543002E23D030464138192803
:1003E00003D80120C002054320362046256031464F
:1003F000029A1546FFF7A2FE00280BD0012806D06E
:10040000ED1DE808C000083002908AE709E02D1DC4
:10041000029586E762683046A1689047206A401CD2
:100420007EE7206AFEBD002203098B422CD3030A1B
:100430008B4211D300239C464EE003460B433CD431
:10044000002243088B4231D303098B421CD3030A99
:100450008B4201D394463FE0C3098B4201D3CB01C9
:10046000C01A524183098B4201D38B01C01A5241F9
:1004700043098B4201D34B01C01A524103098B42FD
:1004800001D30B01C01A5241C3088B4201D3CB00E8
:10049000C01A524183088B4201D38B00C01A5241CB
:1004A00043088B4201D34B00C01A5241411A00D27B
:1004B00001465241104670475DE0CA0F00D04942E4
:1004C000031000D34042534000229C4603098B4254
:1004D0002DD3030A8B4212D3FC22890112BA030ADC
:1004E0008B420CD3890192118B4208D3890192115E
:1004F0008B4204D389013AD0921100E08909C309E3
:100500008B4201D3CB01C01A524183098B4201D3E4
:100510008B01C01A524143098B4201D34B01C01ACF
:10052000524103098B4201D30B01C01A5241C30847
:100530008B4201D3CB00C01A524183088B4201D3B6
:100540008B00C01A5241D9D243088B4201D34B00D1
:10055000C01A5241411A00D20146634652415B1013
:10056000104601D34042002B00D5494270476346F4
:100570005B1000D3404201B50020C046C04602BD1A
:10058000704770477047FFB504460D4681B0243070
:1005900000902168880604D51022E069914321600B
:1005A00000E00120A84201DD471B00E0002704987D
:1005B000A1697A191018081AA0612078C00602D41F
:1005C0002046C046C046002608E003986268A1683D
:1005D000805D9047206A401C761C20620498864209
:1005E000F3DB2078C0060AD52046C046C04606E0A8
:1005F0006268A16830209047206A401C206238461B
:100600007F1E0028F4DC07E000986268A168405D66
:100610009047206A401C206228466D1E0028F3DCAB
:100620002046C046C0462078000602D5022005B00C
:10063000F0BD0120FBE70000084B70B50D467B4480
:1006400000F013F80446284600F0C5FC002802D04C
:100650000020C04370BD204670BD00009D09000011
:1006600001694A1C02610878704700B58FB0029199
:1006700000210591054901937944039111460490A5
:100680006846FFF749FE0FB000BD0000E5FFFFFF21
:10069000754600F025F8AE46050069465346C00889
:1006A000C000854618B020B5FFF7E0FD60BC00270C
:1006B0004908B6460026C0C5C0C5C0C5C0C5C0C52E
:1006C000C0C5C0C5C0C5403D49008D46704710B586
:1006D0000446C046C0462046FFF745FD10BD000059
:1006E000004870477401002001491820ABBEFEE7A6
:1006F00026000200704700001FB50C4C1ECC03946E
:100700006C460EC4810F89006A465158084A891800
:100710004968C306DB0E01229A401143820F920002
:100720006B469A58024BD21851601FBDB415000099
:1007300000020050024909680143014A11607047F4
:100740000002005010B500F0A9FB0148006810BD80
:1007500080000020FEB5002002901AA000680090E2
:100760001948046A00132040002801D00020FEBD73
:100770000120C0042040002801D0144D00E0144D99
:10078000012040042040002801D02846EFE7032044
:1007900080032040800B69460A5C0192E005C00D91
:1007A000861C1F2040022040400A871C019A7A4381
:1007B0001146AA0872431046FFF735FE80000290EA
:1007C0000298D4E7010202040002005000805101A7
:1007D000001BB700FEB5002002901AA00068009030
:1007E0001948046A00132040002801D00020FEBDF3
:1007F0000120C0042040002801D0144D00E0144D19
:10080000012040042040002801D02846EFE70320C3
:1008100080032040800B69460A5C0192E005C00D10
:10082000861C1F2040022040400A871C019A7A4300
:100830001146AA0872431046FFF7F5FD80000290AA
:100840000298D4E701020204000200500080510126
:10085000001BB700FEB5002002901AA000680090AF
:100860001948046A00132040002801D00020FEBD72
:100870000120C0042040002801D0144D00E0144D98
:10088000012040042040002801D02846EFE7032043
:1008900080032040800B69460A5C0192E005C00D90
:1008A000861C1F2040022040400A871C019A7A4380
:1008B0001146AA0872431046FFF7B5FD800002906A
:1008C0000298D4E7010202040002005000805101A6
:1008D000001BB70070B504460D461848C0681021CB
:1008E000084006461548006804210843134908607B
:1008F00000BF1248C068102108400028F9D00F48F6
:100900000069C008C000C01D0C4908610846806924
:10091000000900012843886108460069C008C0003A
:100920002043086100F0BAFA002E05D103480068A0
:10093000042188430149086070BD00000002005096
:10094000F7B584B000220023184C2546E0CDE468BA
:1009500002970196009503948403240E002C0ED078
:100960000403A40FA400124D63198403250E84050B
:10097000E40EA5401C68AC43069D2C431C6004019A
:10098000640F002C10D08400A40FA4006D462C59D5
:10099000074D083D62190401650FC401E40EA5402E
:1009A0001468AC430C43146007B0F0BDA4150000FC
:1009B000180200500146074A05E01046521E002862
:1009C00001DC002070470448C06808408842F4D128
:1009D0000120F7E7804F120000020050FEB50446E8
:1009E0000D4600265CE080221F21042000F0E2F882
:1009F00080221F21052000F0DDF80A221C2105209D
:100A000000F0D8F8002E21D103221F21052000F08C
:100A1000D1F800220221084600F0CCF80C22032174
:100A2000022000F0C7F800220621022000F0C2F8E0
:100A30000C220721022000F0BDF8002211460320FD
:100A400000F0B8F82946204600F058F81C21002094
:100A500000F02CF8029008221F21042000F0AAF8D0
:100A60001C21002000F022F8019000271C2100200A
:100A700000F01CF800901C21002000F017F8022163
:100A80000840002803D101200749486309E00120FC
:100A90000549486308221F21052000F08BF800E07B
:100AA000A1E700BFFEBD00004042005002461148D1
:100AB0000068802318430F4B186000200E4B98638A
:100AC0005001084300020B4B1862184600680123CE
:100AD0001843084B186000BF06480068C007C00FE5
:100AE0000028F9D10120044B986302480069C0B284
:100AF00070470000000003400042005070B58CB009
:100B000005460E461E480068402108431C490860FF
:100B100000201C49886300247A201949086208468D
:100B20000068012108431649086000BF14480068A6
:100B3000C007C00F0028F9D12C2213A101A8FFF78C
:100B400063FB002015E0611CCCB201A9095C0C4AD2
:100B500011621146096801221143094A116000BF60
:100B600007490968C907C90F0029F9D1611CCCB22E
:100B7000401C2A28E7DB0120024988630CB070BDC5
:100B80000000034000420050FFFFFFFFFFFF7469B9
:100B9000692D30360806000108000604000174695A
:100BA000692D3036C0A80177000000000000C0A801
:100BB0000101000010B500230E4CA3630E4B1B680F
:100BC000802423430C4C236043010B431B0213433B
:100BD000236223461B6801242343074C236000BF84
:100BE000054B1B68DB07DB0F002BF9D10123014C00
:100BF000A36310BD004200500000034070B50346DF
:100C000000200FE0012484400C40002C09D01C6817
:100C100046000325B540AC4346001546B5402C437D
:100C20001C60401C1028EDD370BD0000044604A0D9
:100C3000FFF738FB204600F075FB00BFFEE7000021
:100C4000496E2048617264204661756C7420486169
:100C50006E646C65720A00008168092291438160AC
:100C60007047000008B506481023042200210090B8
:100C7000044800F009F80348FFF7EEFF08BD000044
:100C800080841E0000000340FFB583B004460C9E24
:100C900000270698202801D1002006900698C00061
:100CA00004990843059908432060E06B0121C907B6
:100CB0000843E063FFF746FD02900498002863D1E3
:100CC000A0603848406910210840102801D1029FD7
:100CD00002E0FFF73FFD0746029886420BD33148FA
:100CE00040691021884310302E494861002060601F
:100CF000029807B0F0BDBE4203D3002060603846C2
:100D0000F7E7002E0AD1E06B40004008E06360681E
:100D1000000A0002FF306060780AEAE70A2179439E
:100D200008463146FFF77FFB401D0A210190FFF77F
:100D30007AFB451EFF2D1DD9E06B40004008E063A3
:100D400071000A227A431046FFF76DFB401D0A210D
:100D50000190FFF768FB451EFF2D00D9FF25606855
:100D6000000A000228436060681C41003846FFF713
:100D70005AFBBEE76068000A000228436060691CF5
:100D80003846FFF750FBB4E71020A06005484069E3
:100D900010218843103003494861002060600298A8
:100DA000A7E70000000200507047000010B50120C6
:100DB000FFF7C0FC0120FFF7FDFD00210846FFF70B
:100DC00089FD002211461948FFF7BAFD00221021C3
:100DD0001748FFF7B5FD1548FFF78EFC1448FFF7DD
:100DE0008BFC05200007406B800880000521090767
:100DF00048630846406B03210843052109074863FF
:100E00000846806B0009000188630846806B0F214B
:100E100008430521090788630648006905490861F8
:100E200008460069086100F039F810BD103D805790
:100E30000C0040524000005000B50346184600F038
:100E400001F800BD00BF0B4989690122D20511409C
:100E50000029F8D1074908600A280AD100BF0549CE
:100E600089690122D20511400029F8D10D21014ADA
:100E7000116070470000054010B5FFF78FF9044678
:100E800000F000FB002803D0012000070249486061
:100E90002046FFF787F910BD00ED00E070B5FFF7C1
:100EA000D9FC114908601148006945076D0F022DF2
:100EB00003D0A8000E490C5801E00B4804680B4809
:100EC00080690007000F461C31462046FFF7ABFA49
:100ED000084908600849074800684A108018FFF769
:100EE000A2FA0649086070BD880000200002005088
:100EF0008C0000208000002040420F008400002071
:100F000070470000F0B587B004460D4627480146FB
:100F10000EC9C06803AE0EC6069000200290244899
:100F20004069032109060840060E214880690F2107
:100F300009020840070A002020630320E060A0683F
:100F40001C490840A060012E04D1FFF743FCB1000A
:100F500003AA5050002D26D0B10003AA5058791C86
:100F6000FFF761FA6908401829460190FFF75BFA1C
:100F7000801E02901049029888420FD9B10003AA3E
:100F80005058791CFFF74FFAE900401829460190A4
:100F9000FFF749FA0009801E606204E00321090797
:100FA00002980843606207B0F0BD0000D41500004D
:100FB000000200500FFFF0FFFFFF000030380A284A
:100FC00001D2012070470020704700BF0146401E3B
:100FD0000029FBD1704701460020C043704730B55F
:100FE00004460D462046FFF727FF204630BD00008F
:100FF00000BF06E05920B649086016200860882026
:101000000860B34800680128F4D100BFFFF7CEFEA6
:1010100001229103AF48FFF7F1FD01225103AD48D2
:101020004030FFF7EBFD0020AB4948630120AA499F
:101030004039886300BF0020A549086000BFE12156
:101040004902A648FFF75EFFFFF70CFEFF220021D2
:101050001046FFF7AFFD00BF1D210020FFF726FD62
:10106000002801D1012000E00020C007C00F0028A7
:10107000F2D103221F210520FFF79CFD00221F2132
:101080000420FFF797FD00220A210220FFF792FDBE
:1010900000220B210220FFF78DFDFF220A210220F2
:1010A000FFF788FD0B2211460220FFF783FD002287
:1010B00004210220FFF77EFD0C2205210220FFF70C
:1010C00079FDFF2206210220FFF774FD112207217E
:1010D0000220FFF76FFD00220C210220FFF76AFDBE
:1010E00000220D210220FFF765FD00220E210220C3
:1010F000FFF760FD00220F210220FFF75BFD0322B6
:101100001F210520FFF756FD01221F210420FFF7B4
:1011100051FDE02238210220FFF74CFD03221F2160
:101120000520FFF747FD02221F210420FFF742FDA3
:101130000F2200210220FFF73DFD3622022104206C
:10114000FFF738FD03221F210520FFF733FD0222A0
:101150001F210420FFF72EFD122206210220FFF797
:1011600029FD0C2207210220FFF724FDE0220421A3
:101170000220FFF71FFD03221F210520FFF71AFDA4
:1011800002221F210420FFF715FDDC220A21022084
:10119000FFF710FD05220B210220FFF70BFD0322B4
:1011A0001F210520FFF706FD03221F210420FFF762
:1011B00001FD362204210220FFF7FCFC302205212C
:1011C0000220FFF7F7FC2D2202210846FFF7F2FC70
:1011D000692203210220FFF7EDFC69220021022091
:1011E000FFF7E8FC742201210220FFF7E3FC042151
:1011F0000020FFF75BFC3A49086005210020FFF75B
:1012000055FC3749086002210020FFF74FFC3449A4
:10121000086003210020FFF749FC314908600021E4
:101220000846FFF743FC2E49086001210020FFF724
:101230003DFC2B49086003221F210520FFF7BAFC63
:1012400002221F210420FFF7B5FC142211460220C0
:10125000FFF7B0FC222216210220FFF7ABFC01228F
:1012600017210220FFF7A6FC1E48FFF7AEFE102252
:1012700014210220FFF79EFC002216210220FFF716
:1012800099FC012217210220FFF794FC1548FFF773
:101290009CFE04221F211046FFF78CFCC0221B215C
:1012A0000420FFF787FC40221C210420FFF782FC6A
:1012B0001C210020FFF7FAFB09E000210846FFF798
:1012C000F5FB044608492A20FFF788FB00BFF4E736
:1012D0000001005000400050404200500000054016
:1012E00008000020A0860100100000200B490968BA
:1012F0000968002901D1012100E00021002904D062
:101300000021C943064A116006E004490968C9681A
:10131000C868034A4168116070470000400000201F
:101320006C00002010B5044610A02168FEF7BAFF3B
:1013300011A06168FEF7B6FF12A0A168FEF7B2FF28
:1013400013A0E168FEF7AEFF14A02169FEF7AAFF23
:1013500015A06169FEF7A6FF16A0A169FEF7A2FF1E
:1013600017A0E169FEF79EFF10BD0000723020203B
:101370003D20307825780A00723120203D203078D9
:1013800025780A00723220203D20307825780A0026
:10139000723320203D20307825780A0072313220C7
:1013A0003D20307825780A006C7220203D2030786E
:1013B00025780A00706320203D20307825780A00C7
:1013C000707372203D20307825780A0001460A6942
:1013D0004B68886898608B68486858605068884295
:1013E00001D188685060002008611068401E1060BC
:1013F0001068704742684A6093688B6093685960D0
:101400009160086103685B1C0360704718480068BE
:10141000002803D001201749086027E00020154963
:1014200008601548016800E0491E14204843134A2B
:101430001058002801D1012000E000200028F3D13D
:1014400014224A430D4BD01842685268426002464B
:1014500008324368934202D142685268426042684F
:10146000D268074B1A600448016000BF7047000053
:10147000740000206000002054000020AC00002018
:101480003C000020F8B5002000903B480068002890
:1014900064D13A480068451C38480560002D0FD1DA
:1014A000374807683748006835490860354807609D
:1014B00035480068401C34490860FFF717FF00BF3B
:1014C0003248006885423DD300BF2D48006800685F
:1014D000002801D1012000E00020002804D00020D5
:1014E000C0432A4908602CE025480068C068C468E9
:1014F0006668B54202D22548066022E0201DFFF74B
:1015000065FFA06A002803D020461830FFF75EFF71
:101510001F49E06A0968884202D91D49E06A0860EB
:101520001422E16A51431B4A8818211DFFF762FF0C
:101530001949E06A0968C96A8842C6D30120009047
:10154000C3E700BF14480068C06A1421484311492A
:101550000858012801D90120009004E00F480068D4
:10156000401C0E4908600E480068002801D0012088
:1015700000900098F8BD000074000020500000208A
:101580004000002044000020640000206C00002087
:1015900054000020AC0000203C0000205C00002033
:1015A0006000002000000000040000000C000000AB
:1015B0002400000000000000040000002C000000D7
:1015C0000000000000000000040000002C000000EB
:1015D00000000000001BB700000000000000000039
:1015E00000805101001BB700000000000000000057
:1015F00000805101001BB700000000000000000047
:101600000080510130313233343536373839414278
:101610004344454640305800303132333435363754
:101620003839616263646566403078004C160000AA
:1016300000000020AC00000004010000F8160000CB
:10164000AC0000202C05000020010000000000007C
:10165000000000000000000000000000FFFFFFFF8E
:10166000FFFF7469692D3036080600010800060482
:1016700000017469692D3036C0A8017700000000B0
:101680000000C0A8010100000000000000000000F0
:10169000000000000000000000000000000000004A
:1016A000000000000000000000000000000000003A
:1016B000000000000000000000000000000000002A
:1016C00000000000000000000000000080F0FA02AE
:1016D0003200000080F0FA02001BB700000000009A
:1016E00080F0FA0210270000000000000000000057
:0816F000000000000080510120
:0400000500000241B4
:00000001FF
